:020000040800F2
:10E0000000C00020015001089D4D0108A94D0108E4
:10E01000AF4D0108B54D0108BB4D010800000000DF
:10E02000000000000000000000000000C14D0108D9
:10E03000CD4D010800000000D94D0108E54D010853
:10E040004950010849500108495001084950010848
:10E050004950010849500108F14D0108FF4D0108E0
:10E060000D4E01081B4E0108294E0108394E0108CA
:10E070004950010849500108495001084950010818
:10E080004950010849500108495001084950010808
:10E090004D4E01084950010849500108614E0108E0
:10E0A0008D4E0108A14E0108495001084950010850
:10E0B00049500108B54E010849500108495001086E
:10E0C00049500108495001084950010849500108C8
:10E0D00049500108495001084950010849500108B8
:10E0E00049500108495001084950010849500108A8
:10E0F0004950010849500108495001084950010898
:10E100004950010849500108495001084950010887
:10E110004950010849500108495001084950010877
:10E120004950010849500108495001084950010867
:10E1300000000000000000000000000000000000DF
:10E1400000000000000000000000000000000000CF
:10E1500000000000000000000000000000000000BF
:10E1600000000000000000000000000000000000AF
:10E17000000000000000000000000000000000009F
:10E18000000000000000000000000000000000008F
:10E19000000000000000000000000000000000007F
:10E1A000000000000000000000000000000000006F
:10E1B000000000000000000000000000000000005F
:10E1C000000000000000000000000000000000004F
:10E1D000000000000000000000000000000000003F
:04E1E0005FF8E0F113
:10E1E80010B5054C237833B9044B13B10448AFF389
:10E1F80000800123237010BDA80500200000000046
:10E20800F003020808B5034B1BB103490348AFF3F9
:10E21800008008BD00000000AC050020F0030208E3
:10E22800034613F8012B002AFBD1181A013870474E
:10E2380081F0004102E000BF83F0004330B54FEAAF
:10E2480041044FEA430594EA050F08BF90EA020F1C
:10E258001FBF54EA000C55EA020C7FEA645C7FEAAF
:10E26800655C00F0E2804FEA5454D4EB5555B8BFD2
:10E278006D420CDD2C4480EA020281EA030382EA43
:10E28800000083EA010180EA020281EA0303362DD5
:10E2980088BF30BD11F0004F4FEA01314FF4801CA8
:10E2A8004CEA113102D0404261EB410113F0004FBA
:10E2B8004FEA03334CEA133302D0524263EB430371
:10E2C80094EA050F00F0A780A4F10104D5F1200E0F
:10E2D8000DDB02FA0EFC22FA05F2801841F100016A
:10E2E80003FA0EF2801843FA05F359410EE0A5F13E
:10E2F80020050EF1200E012A03FA0EFC28BF4CF06F
:10E30800020C43FA05F3C01851EBE37101F0004524
:10E3180007D54FF0000EDCF1000C7EEB00006EEB31
:10E328000101B1F5801F1BD3B1F5001F0CD34908BB
:10E338005FEA30004FEA3C0C04F101044FEA445212
:10E3480012F5800F80F09A80BCF1004F08BF5FEA99
:10E35800500C50F1000041EB045141EA050130BD79
:10E368005FEA4C0C404141EB010111F4801FA4F11C
:10E378000104E9D191F0000F04BF01460020B1FA71
:10E3880081F308BF2033A3F10B03B3F120020CDAA9
:10E398000C3208DD02F1140CC2F10C0201FA0CF087
:10E3A80021FA02F10CE002F11402D8BFC2F1200CEC
:10E3B80001FA02F120FA0CFCDCBF41EA0C019040A2
:10E3C800E41AA2BF01EB0451294330BD6FEA0404EB
:10E3D8001F3C1CDA0C340EDC04F11404C4F12002D6
:10E3E80020FA04F001FA02F340EA030021FA04F3E8
:10E3F80045EA030130BDC4F10C04C4F1200220FA3F
:10E4080002F001FA04F340EA0300294630BD21FA7C
:10E4180004F0294630BD94F0000F83F4801306BF42
:10E4280081F480110134013D4EE77FEA645C18BF36
:10E438007FEA655C29D094EA050F08BF90EA020FCD
:10E4480005D054EA000C04BF1946104630BD91EAC5
:10E45800030F1EBF0021002030BD5FEA545C05D1C8
:10E468004000494128BF41F0004130BD14F5800407
:10E478003CBF01F5801130BD01F0004545F0FE417B
:10E4880041F470014FF0000030BD7FEA645C1ABFB0
:10E49800194610467FEA655C1CBF0B46024650EAE7
:10E4A800013406BF52EA033591EA030F41F4002113
:10E4B80030BD00BF90F0000F04BF0021704730B599
:10E4C8004FF4806404F132044FF000054FF000016E
:10E4D80050E700BF90F0000F04BF0021704730B52F
:10E4E8004FF4806404F1320410F0004548BF404204
:10E4F8004FF000013EE700BF42004FEAE2014FEA59
:10E5080031014FEA02701FBF12F07F4393F07F4F33
:10E5180081F06051704732F07F4208BF704793F036
:10E528007F4F04BF41F40021704730B54FF4607449
:10E5380001F0004521F000411CE700BF50EA01024C
:10E5480008BF704730B54FF000050AE050EA0102F5
:10E5580008BF704730B511F0004502D5404261EB65
:10E5680041014FF4806404F132045FEA915C3FF4A6
:10E57800D8AE4FF003025FEADC0C18BF03325FEA43
:10E58800DC0C18BF033202EBDC02C2F1200300FAF4
:10E5980003FC20FA02F001FA03FE40EA0E0021FA19
:10E5A80002F11444BDE600BF70B54FF0FF0C4CF407
:10E5B800E06C1CEA11541DBF1CEA135594EA0C0FB9
:10E5C80095EA0C0F00F0DEF82C4481EA030621EAF4
:10E5D8004C5123EA4C5350EA013518BF52EA03352F
:10E5E80041F4801143F4801338D0A0FB02CE4FF0E1
:10E5F8000005E1FB02E506F00042E0FB03E54FF011
:10E608000006E1FB03569CF0000F18BF4EF0010E08
:10E61800A4F1FF04B6F5007F64F5407404D25FEA04
:10E628004E0E6D4146EB060642EAC62141EA5551B7
:10E638004FEAC52040EA5E504FEACE2EB4F1FD0CF9
:10E6480088BFBCF5E06F1ED8BEF1004F08BF5FEA77
:10E65800500E50F1000041EB045170BD06F0004629
:10E6680046EA010140EA020081EA0301B4EB5C04D6
:10E67800C2BFD4EB0C0541EA045170BD41F48011CE
:10E688004FF0000E013C00F3AB8014F1360FDEBFF3
:10E69800002001F0004170BDC4F10004203C35DACF
:10E6A8000C341BDC04F11404C4F1200500FA05F352
:10E6B80020FA04F001FA05F240EA020001F00042F3
:10E6C80021F0004110EBD37021FA04F642EB060169
:10E6D8005EEA430E08BF20EAD37070BDC4F10C0493
:10E6E800C4F1200500FA04F320FA05F001FA04F257
:10E6F80040EA020001F0004110EBD37041F1000143
:10E708005EEA430E08BF20EAD37070BDC4F120054D
:10E7180000FA05F24EEA020E20FA04F301FA05F2B5
:10E7280043EA020321FA04F001F0004121FA04F25D
:10E7380020EA020000EBD3705EEA430E08BF20EA2D
:10E74800D37070BD94F0000F0FD101F00046400067
:10E7580041EB010111F4801F08BF013CF7D041EAE9
:10E76800060195F0000F18BF704703F000465200ED
:10E7780043EB030313F4801F08BF013DF7D043EABE
:10E788000603704794EA0C0F0CEA135518BF95EA74
:10E798000C0F0CD050EA410618BF52EA4306D1D1FB
:10E7A80081EA030101F000414FF0000070BD50EA1A
:10E7B800410606BF1046194652EA430619D094EAA4
:10E7C8000C0F02D150EA013613D195EA0C0F05D18E
:10E7D80052EA03361CBF104619460AD181EA0301E2
:10E7E80001F0004141F0FE4141F470014FF000009A
:10E7F80070BD41F0FE4141F4780170BD70B54FF035
:10E80800FF0C4CF4E06C1CEA11541DBF1CEA1355B4
:10E8180094EA0C0F95EA0C0F00F0A7F8A4EB050496
:10E8280081EA030E52EA03354FEA013100F088808D
:10E838004FEA03334FF0805545EA131343EA126356
:10E848004FEA022245EA111545EA10654FEA00260B
:10E858000EF000419D4208BF964244F1FD0404F5C4
:10E86800407402D25B084FEA3202B61A65EB030520
:10E878005B084FEA32024FF480104FF4002CB6EBDD
:10E88800020E75EB030E22BFB61A754640EA0C005D
:10E898005B084FEA3202B6EB020E75EB030E22BF9D
:10E8A800B61A754640EA5C005B084FEA3202B6EBDE
:10E8B800020E75EB030E22BFB61A754640EA9C009D
:10E8C8005B084FEA3202B6EB020E75EB030E22BF6D
:10E8D800B61A754640EADC0055EA060E18D04FEA2B
:10E8E800051545EA16754FEA06164FEAC30343EACB
:10E8F80052734FEAC2025FEA1C1CC0D111F4801F98
:10E908000BD141EA00014FF000004FF0004CB6E790
:10E9180011F4801F04BF01430020B4F1FD0C88BF2F
:10E92800BCF5E06F3FF6AFAEB5EB030C04BFB6EB3A
:10E93800020C5FEA500C50F1000041EB045170BD2D
:10E948000EF0004E4EEA113114EB5C04C2BFD4EB5A
:10E958000C0541EA045170BD41F480114FF0000EDE
:10E96800013C90E645EA060E8DE60CEA135594EA5A
:10E978000C0F08BF95EA0C0F3FF43BAF94EA0C0F5D
:10E988000AD150EA01347FF434AF95EA0C0F7FF4D2
:10E9980025AF104619462CE795EA0C0F06D152EA26
:10E9A80003353FF4FDAE1046194622E750EA41060A
:10E9B80018BF52EA43067FF4C5AE50EA41047FF41B
:10E9C8000DAF52EA43057FF4EBAE12E74FF0FF3C80
:10E9D80006E000BF4FF0010C02E000BF4FF0010C51
:10E9E8004DF804CD4FEA410C7FEA6C5C4FEA430CCA
:10E9F80018BF7FEA6C5C1BD001B050EA410C0CBF19
:10EA080052EA430C91EA030F02BF90EA020F00207A
:10EA1800704710F1000F91EA030F58BF994208BFE1
:10EA280090422CBFD8176FEAE37040F0010070479E
:10EA38004FEA410C7FEA6C5C02D150EA013C07D1F5
:10EA48004FEA430C7FEA6C5CD6D152EA033CD3D040
:10EA58005DF8040B704700BF8446104662468C463A
:10EA68001946634600E000BF01B5FFF7B7FF00286D
:10EA780048BF10F1000F01BD4DF808EDFFF7F4FF96
:10EA88000CBF012000205DF808FB00BF4DF808ED21
:10EA9800FFF7EAFF34BF012000205DF808FB00BF44
:10EAA8004DF808EDFFF7E0FF94BF012000205DF866
:10EAB80008FB00BF4DF808EDFFF7CEFF94BF01201B
:10EAC80000205DF808FB00BF4DF808EDFFF7C4FF14
:10EAD80034BF012000205DF808FB00BF4FEA410C5D
:10EAE8007FEA6C5C02D150EA013C0AD14FEA430C40
:10EAF8007FEA6C5C02D152EA033C02D14FF000007D
:10EB080070474FF0010070474FEA410212F50012BA
:10EB180015D211D56FF47873B3EB625212D94FEA5C
:10EB2800C12343F0004343EA505311F0004F23FA46
:10EB380002F018BF404270474FF00000704750EA9B
:10EB4800013005D111F0004008BF6FF00040704758
:10EB58004FF00000704700BF4A0011D212F50012B2
:10EB680011D20DD56FF47873B3EB62520ED44FEA1D
:10EB7800C12343F0004343EA505323FA02F070479D
:10EB88004FF00000704750EA013002D14FF0FF30DB
:10EB980070474FF0000070474FEA4102B2F1E0437E
:10EBA80024BFB3F5001CDCF1FE5C0DD901F0004C6C
:10EBB8004FEAC0024CEA5070B2F1004F40EB8300BC
:10EBC80008BF20F00100704711F0804F21D113F1E8
:10EBD8003872BCBF01F00040704741F480114FEA21
:10EBE8005252C2F11802C2F1200C10FA0CF320FAAA
:10EBF80002F018BF40F001004FEAC1234FEAD323C7
:10EC080003FA0CFC40EA0C0023FA02F34FEA430330
:10EC1800CCE77FEA625307D150EA01331EBF4FF0B9
:10EC2800FE4040F44000704701F0004040F0FE40D4
:10EC380040F40000704700BF80F0004002E000BFD1
:10EC480081F0004142001FBF5FEA410392EA030FCF
:10EC58007FEA226C7FEA236C6AD04FEA1262D2EB19
:10EC68001363C1BFD218414048404140B8BF5B421E
:10EC7800192B88BF704710F0004F40F4000020F0B7
:10EC88007F4018BF404211F0004F41F4000121F0CD
:10EC98007F4118BF494292EA030F3FD0A2F1010217
:10ECA80041FA03FC10EB0C00C3F1200301FA03F155
:10ECB80000F0004302D5494260EB4000B0F5000F78
:10ECC80013D3B0F1807F06D340084FEA310102F137
:10ECD8000102FE2A51D2B1F1004F40EBC25008BFE9
:10ECE80020F0010040EA03007047490040EB0000B3
:10ECF80010F4000FA2F10102EDD1B0FA80FCACF1E2
:10ED0800080CB2EB0C0200FA0CF0AABF00EBC250E0
:10ED180052421843BCBFD0401843704792F0000FCE
:10ED280081F4000106BF80F400000132013BB5E721
:10ED38004FEA41037FEA226C18BF7FEA236C21D097
:10ED480092EA030F04D092F0000F08BF08467047FC
:10ED580090EA010F1CBF0020704712F07F4F04D1CA
:10ED6800400028BF40F00040704712F100723CBFDD
:10ED780000F50000704700F0004343F0FE4040F407
:10ED8800000070477FEA226216BF08467FEA2363C5
:10ED98000146420206BF5FEA412390EA010F40F4B0
:10EDA800800070474FF0000304E000BF10F00043FC
:10EDB80048BF40425FEA000C08BF704743F09643E3
:10EDC80001464FF000001CE050EA010208BF7047FE
:10EDD8004FF000030AE000BF50EA010208BF704785
:10EDE80011F0004302D5404261EB41015FEA010C9A
:10EDF80002BF84460146002043F0B64308BFA3F192
:10EE08008053A3F50003BCFA8CF2083AA3EBC25373
:10EE180010DB01FA02FC634400FA02FCC2F1200292
:10EE2800BCF1004F20FA02F243EB020008BF20F0C9
:10EE38000100704702F1200201FA02FCC2F120022F
:10EE480050EA4C0021FA02F243EB020008BF20EA24
:10EE5800DC7070474FF0FF0C1CEAD0521EBF1CEA52
:10EE6800D15392EA0C0F93EA0C0F6FD01A4480EA40
:10EE7800010C400218BF5FEA41211ED04FF0006329
:10EE880043EA501043EA5111A0FB01310CF0004055
:10EE9800B1F5000F3EBF490041EAD3715B0040EA7B
:10EEA800010062F17F02FD2A1DD8B3F1004F40EB4B
:10EEB800C25008BF20F00100704790F0000F0CF01E
:10EEC800004C08BF49024CEA502040EA51207F3AE2
:10EED800C2BFD2F1FF0340EAC250704740F40000BD
:10EEE8004FF00003013A5DDC12F1190FDCBF00F0AE
:10EEF80000407047C2F10002410021FA02F1C2F15C
:10EF0800200200FA02FC5FEA310040F1000053EAF7
:10EF18004C0308BF20EADC70704792F0000F00F045
:10EF2800004C02BF400010F4000F013AF9D040EA4B
:10EF38000C0093F0000F01F0004C02BF490011F4DF
:10EF4800000F013BF9D041EA0C018FE70CEAD153DD
:10EF580092EA0C0F18BF93EA0C0F0AD030F0004C5D
:10EF680018BF31F0004CD8D180EA010000F0004011
:10EF7800704790F0000F17BF90F0004F084691F0CF
:10EF8800000F91F0004F14D092EA0C0F01D1420209
:10EF98000FD193EA0C0F03D14B0218BF084608D1D2
:10EFA80080EA010000F0004040F0FE4040F400001C
:10EFB800704740F0FE4040F4400070474FF0FF0CAF
:10EFC8001CEAD0521EBF1CEAD15392EA0C0F93EAF6
:10EFD8000C0F69D0A2EB030280EA010C49024FEA48
:10EFE800402037D04FF0805343EA111143EA101301
:10EFF8000CF000408B4238BF5B0042F17D024FF4B9
:10F00800000C8B4224BF5B1A40EA0C00B3EB510F93
:10F0180024BFA3EB510340EA5C00B3EB910F24BF7C
:10F02800A3EB910340EA9C00B3EBD10F24BFA3EB01
:10F03800D10340EADC001B0118BF5FEA1C1CE0D1C9
:10F04800FD2A3FF650AF8B4240EBC25008BF20F07C
:10F05800010070470CF0004C4CEA50207F32C2BFD0
:10F06800D2F1FF0340EAC250704740F400004FF06D
:10F078000003013A37E792F0000F00F0004C02BF9E
:10F08800400010F4000F013AF9D040EA0C0093F068
:10F09800000F01F0004C02BF490011F4000F013BC2
:10F0A800F9D041EA0C0195E70CEAD15392EA0C0F2A
:10F0B80008D142027FF47DAF93EA0C0F7FF470AF62
:10F0C800084676E793EA0C0F04D14B023FF44CAFA5
:10F0D80008466EE730F0004C18BF31F0004CCAD13A
:10F0E80030F000427FF45CAF31F000437FF43CAF76
:10F0F8005FE700BF4FF0FF3C06E000BF4FF0010C98
:10F1080002E000BF4FF0010C4DF804CD4FEA400279
:10F118004FEA41037FEA226C18BF7FEA236C11D0C3
:10F1280001B052EA530C18BF90EA010F58BFB2EB76
:10F13800030088BFC81738BF6FEAE17018BF40F0F6
:10F14800010070477FEA226C02D15FEA402C05D1AA
:10F158007FEA236CE4D15FEA412CE1D05DF8040B2F
:10F16800704700BF844608466146FFE70FB5FFF7C2
:10F17800C9FF002848BF10F1000F0FBD4DF808ED7A
:10F18800FFF7F4FF0CBF012000205DF808FB00BF6B
:10F198004DF808EDFFF7EAFF34BF012000205DF8C5
:10F1A80008FB00BF4DF808EDFFF7E0FF94BF012012
:10F1B80000205DF808FB00BF4DF808EDFFF7D2FF0F
:10F1C80094BF012000205DF808FB00BF4DF808ED52
:10F1D800FFF7C8FF34BF012000205DF808FB00BF1F
:10F1E8004FEA4002B2F1FE4F0FD34FF09E03B3EB4C
:10F1F80012620DD94FEA002343F0004310F0004F8C
:10F2080023FA02F018BF404270474FF000007047E1
:10F2180012F1610F01D1420205D110F0004008BF80
:10F228006FF0004070474FF00000704742000ED268
:10F23800B2F1FE4F0BD34FF09E03B3EB126209D429
:10F248004FEA002343F0004323FA02F070474FF0DF
:10F258000000704712F1610F01D1420202D14FF054
:10F26800FF3070474FF00000704700BF80B582B094
:10F2780000AF03460A46FB711346BB7128200EF007
:10F2880053FD03461A461A4B1A600C200EF04CFD2B
:10F2980003461A46174B1A600C200EF045FD03462C
:10F2A8001A46154B1A60124B1B68BA795A70104BE4
:10F2B8001B6800229A700E4B1B68184600F020F855
:10F2C800FB79012B10D1022000F0FCF8084B1B68D9
:10F2D8001946012000F05CFC084B1A78044B1B68A7
:10F2E8001946104600F096FC00BF0837BD4680BDA1
:10F2F80074090020700900206C090020C405002052
:10F3080080B584B000AF78600023FB730023BB7323
:10F3180000237B737B68002B02D14FF0FF3339E069
:10F328007B689B78012B08D107F10D017B680122CE
:10F338007F2001F009FD0346FB7397F90F30002B7E
:10F3480026D107F10E017B680122002001F0FCFCA8
:10F358000346FB7397F90F30002B17D1BB7BD12BDA
:10F3680014D17B68FF22DA70BA7B7B681A707868E0
:10F3780000F058F80346FB7397F90F30002B07D1BC
:10F38800786800F00BF80346FB7301E0FD23FB737C
:10F3980097F90F3018461037BD4680BD80B584B048
:10F3A80000AF78600023FB737B680C225A717B687E
:10F3B80003229A717B680222DA717B6811221A7122
:10F3C8007B680D225A737B6800229A737B6802223D
:10F3D800DA737B6815221A73786800F0C7FD034654
:10F3E800FB7397F90F30002B16D1786800F080FC7A
:10F3F8000346FB7397F90F30002B0DD1786800F0A6
:10F40800BCFE0346FB7397F90F30002B04D17868D4
:10F4180000F077FD0346FB7397F90F301846103755
:10F42800BD4680BD80B584B000AF78600023FB7313
:10F43800B623BB737B68002B01D1FF23FB7307F155
:10F448000E017B6801227E2001F0D4FC0346FB7389
:10F458000F2005F059FE97F90F30002B02D178687C
:10F4680000F006F897F90F3018461037BD4680BDF2
:10F4780080B483B000AF78607B680222DA717B6861
:10F4880008225A717B6810221A717B6803229A71CC
:10F498007B680222DA737B6808225A737B6814221D
:10F4A8001A737B6800229A737B687A6852689A603C
:10F4B8007B687A68D2681A6100BF0C37BD4680BC89
:10F4C8007047000080B586B000AF78600023FB75F8
:10F4D8007B68012B02D101233B7308E07B68022B78
:10F4E80002D102233B7302E04FF0FF332DE00223E9
:10F4F8007B73BB7B43F00103BB73BB7B6FF341039F
:10F50800BB73BB7B43F00403BB73BB7B43F00803B3
:10F51800BB73BB7B6FF30413BB73FB896FF3481397
:10F52800FB813B7C6FF387133B743B7C43F0010307
:10F538003B74084B1A6807F10C031146184600F093
:10F548000BF80346FB7597F9173018461837BD4670
:10F5580080BD00BF7409002080B584B000AF78601A
:10F5680039600023FB737B685B780C2B23D801A2DE
:10F5780052F823F0BFF50008BFF50008B1F5000800
:10F58800BFF50008BFF50008BFF50008BFF5000883
:10F59800BFF50008BFF50008BFF50008BFF5000873
:10F5A800BFF50008BFF500083968786800F00AF868
:10F5B8000346FB7300E000BF97F90F301846103779
:10F5C800BD4680BD80B584B000AF78603960002347
:10F5D800FB733B68002B01D1FF23FB7397F90F30B6
:10F5E800002B02D17B68002B02D1FF23FB7326E09E
:10F5F8007B680433BB603968B86800F090FA03464A
:10F60800FB7397F90F30002B19D13968786800F02F
:10F6180039F90346FB7397F90F30002B0FD139687E
:10F62800786800F013F80346FB7397F90F30002B46
:10F6380005D13968B86800F09BF80346FB7397F961
:10F648000F3018461037BD4680BD000080B584B025
:10F6580000AF7860396000233B7300237B7300237D
:10F66800BB7300233B7200237B720023BB7207F13C
:10F678000C013B680322552001F066FB0346FB732F
:10F6880097F90F30002B6AD13B7B5AB27B685B78C5
:10F698001946364B5B5C5BB2DB435BB213405BB233
:10F6A800DBB23B72BB7B5AB27B685B7819462F4B47
:10F6B8005B5C5BB2DB435BB213405BB2DBB2BB7239
:10F6C8007B681B78032B3BD801A252F823F000BFBC
:10F6D800E9F60008F3F600080BF7000823F700081E
:10F6E8003B7A3B73BB7ABB732CE03A7A7B685B78D6
:10F6F80019461E4B5B5C1343DBB23B73BB7ABB738F
:10F7080020E0BA7A7B685B781946184B5B5C134338
:10F71800DBB2BB733B7A3B7314E03A7A7B685B7865
:10F728001946124B5B5C1343DBB23B73BA7A7B68B6
:10F738005B7819460D4B5B5C1343DBB2BB7301E08E
:10F74800FC23FB7397F90F30002B08D107F10C014C
:10F758003B680322552001F04DFB0346FB7397F9E4
:10F768000F3018461037BD4680BD00BFCC040208D4
:10F7780080B584B000AF786039600023FB73002344
:10F78800BB817B681B7823F03F03DBB2002B04D1DD
:10F7980015233B7303237B7365E07B681B7823F099
:10F7A8003F03DBB2402B04D12D233B7300237B7333
:10F7B80059E07B681B7823F03F03DBB2802B04D130
:10F7C8001D233B7307237B734DE07B681B7823F075
:10F7D8003F03DBB2C02B46D107F10C013B68022284
:10F7E8007A2001F0B1FA0346BB7397F90E30002B6B
:10F7F80039D13B7B23F01803FB737B681B78C3F379
:10F808004103DBB2DB005BB203F018035AB297F98D
:10F818000F3013435BB2DBB23B733B7B23F0070330
:10F82800FB737B681B78C3F3C203DBB25BB203F0E4
:10F8380007035AB297F90F3013435BB2DBB23B733D
:10F848007B7B23F00703FB737B685B78C3F30203BE
:10F85800DBB25BB203F007035AB297F90F301343D8
:10F868005BB2DBB27B7307F10C013B6802227A20A2
:10F8780001F0C0FA0346BB7397F90E3018461037EB
:10F88800BD4680BD80B584B000AF78603960396806
:10F89800786800F07AF80346FB7397F90F30002B6D
:10F8A80005D13968786800F008F80346FB7397F9C2
:10F8B8000F3018461037BD4680BD80B586B000AF02
:10F8C800786039600023BB750023FB7307F10F01D3
:10F8D8003B680122542001F037FA0346FB7597F97B
:10F8E8001730002B4BD17B6802333B617B681B7858
:10F8F800012B14D1FB7B23F01003BB753B691B78EC
:10F90800C3F30013DBB21B015BB203F010035AB25E
:10F9180097F9163013435BB2DBB2FB7313E0FB7B42
:10F9280023F02003BB753B691B78C3F30013DBB2DC
:10F938005B015BB203F020035AB297F91630134308
:10F948005BB2DBB2FB73FB7B23F00F03BB753B6938
:10F958001B88C3F34313DBB25BB203F00F035AB245
:10F9680097F9163013435BB2DBB2FB7307F10F0153
:10F978003B680122542001F03DFA0346FB7597F9D4
:10F98800173018461837BD4680BD80B586B000AF21
:10F99800786039600023BB750023FB7307F10F0102
:10F9A8003B680122532001F0CFF90346FB7597F914
:10F9B8001730002B40F0AD807B6802333B617B68D9
:10F9C8001B78012B4FD1FB7B23F00803BB753B69E8
:10F9D8001B78C3F30003DBB2DB005BB203F0080360
:10F9E8005AB297F9163013435BB2DBB2FB73FB7B59
:10F9F80023F00403BB753B691B78C3F34003DBB2F8
:10FA08009B005BB203F004035AB297F91630134314
:10FA18005BB2DBB2FB73FB7B23F00203BB753B6974
:10FA28001B78C3F38003DBB25B005BB203F0020315
:10FA38005AB297F9163013435BB2DBB2FB73FB7B08
:10FA480023F00103BB753B691B78C3F3C003DBB22A
:10FA58005BB203F001035AB297F9163013435BB255
:10FA6800DBB2FB734CE0FB7B03F07F03BB753B69A8
:10FA78001B78C3F30003DBB2DB015AB297F91630E7
:10FA880013435BB2DBB2FB73FB7B23F04003BB7514
:10FA98003B691B78C3F34003DBB29B015BB203F005
:10FAA80040035AB297F9163013435BB2DBB2FB73CB
:10FAB800FB7B23F02003BB753B691B78C3F38003F2
:10FAC800DBB25B015BB203F020035AB297F9163040
:10FAD80013435BB2DBB2FB73FB7B23F01003BB75F4
:10FAE8003B691B78C3F3C003DBB21B015BB203F0B5
:10FAF80010035AB297F9163013435BB2DBB2FB73AB
:10FB080007F10F013B680122532001F073F9034606
:10FB1800FB7597F9173018461837BD4680BD80B574
:10FB280084B000AF7860396000237B730023BB7317
:10FB380007F10D013B680122522001F005F9034647
:10FB4800FB7397F90F30002B1CD17B7B23F0080344
:10FB5800BB737B681B78C3F30003DBB2DB005BB2CB
:10FB680003F008035AB297F90E3013435BB2DBB2C5
:10FB78007B7307F10D013B680122522001F03AF92D
:10FB88000346FB7397F90F3018461037BD4680BD02
:10FB980080B584B000AF03463960FB710023FB7366
:10FBA8000023BB733B68002B01D1FF23FB7397F93C
:10FBB8000F30002B02D0FF23FB7325E007F10E0165
:10FBC8003B6801227B2001F0BFF80346FB7397F9DD
:10FBD8000F30002B18D1FB79012B07D1FB79DB0003
:10FBE800DAB2BB7B1343DBB2BB7304E0BB7B23F00D
:10FBF8000803DBB2BB7307F10E013B6801227B20CF
:10FC080001F0F8F80346FB7397F90F3018461037E0
:10FC1800BD4680BD80B584B000AF03463960FB7136
:10FC28000023FB73304B1B78FA799A420CD13B685E
:10FC38000C225A713B6811221A713B680D225A73C3
:10FC48003B6815221A731DE0284B1B78FA799A42F3
:10FC58000CD13B6807225A713B6812221A713B6823
:10FC680007225A733B6814221A730BE03B680C2274
:10FC78005A713B6811221A713B680D225A733B680E
:10FC880015221A733B680222DA713B6803229A71C3
:10FC98003B6800229A733B680222DA73386800F0E6
:10FCA80065F90346FB7397F90F30002B16D13868B6
:10FCB80000F01EF80346FB7397F90F30002B0DD1A7
:10FCC800386800F05AFA0346FB7397F90F30002B97
:10FCD80004D1386800F015F90346FB7397F90F3023
:10FCE80018461037BD4680BDC4050020000000201E
:10FCF80080B584B000AF78600023BB8107F10C03A6
:10FD08007968184600F036F80346FB7397F90F3008
:10FD1800002B29D107F10C017B680122422001F058
:10FD280069F80346FB7397F90F30002B1CD17B68E9
:10FD38005A7B7B685A747B68DA7B7B68DA740120AB
:10FD480005F0E2F907F10C03591C7B6801224320F6
:10FD580001F050F80346FB7397F90F30002B03D1DD
:10FD68007B689A7B7B689A7497F90F30184610372E
:10FD7800BD4680BD80B584B000AF786039603B680F
:10FD880002227968422000F0DFFF0346FB7397F9EF
:10FD98000F30002B1BD13968786800F01EF8034635
:10FDA800FB7397F90F30002B11D13968786800F090
:10FDB8007AF80346FB7397F90F30002B07D17B685D
:10FDC80001333968184600F03BF80346FB7397F98E
:10FDD8000F3018461037BD4680BD80B485B000AFDF
:10FDE800786039600023FB730023BB7300237B73A7
:10FDF8003B685B7B0D2B1AD83B685A7B3B685B7C66
:10FE08009A4216D03B685B7B7B737B681B7823F038
:10FE18000F03BB7397F90D3003F00F035AB297F92C
:10FE28000E3013435BB2DAB27B681A7001E0FC2330
:10FE3800FB7397F90F3018461437BD4680BC7047DE
:10FE480080B485B000AF786039600023FB7300236D
:10FE5800BB7300237B733B689B7B042B1AD83B68DE
:10FE68009A7B3B689B7C9A4216D03B689B7B7B7352
:10FE78007B681B7823F00703BB7397F90D3003F0F9
:10FE880007035AB297F90E3013435BB2DAB27B68B4
:10FE98001A7001E0FC23FB7397F90F3018461437EA
:10FEA800BD4680BC704780B485B000AF78603960CB
:10FEB8000023FB730023BB7300237B733B68DB7B4E
:10FEC800022B15D83B68DB7B7B737B681B7823F0A0
:10FED8003003BB737B7B1B015BB203F030035AB268
:10FEE80097F90E3013435BB2DAB27B681A7001E0FF
:10FEF800FC23FB7397F90F3018461437BD4680BCB6
:10FF0800704780B584B000AF78600023BB7307F1F9
:10FF18000E017B680122022000F016FF0346FB73E6
:10FF2800BB7B5B08DBB2BB73BB7B03F00F03DBB2AD
:10FF3800BB73BB7B012B02D1FA23FB7310E0BB7BA5
:10FF4800022B02D1F923FB730AE0BB7B032B02D1FE
:10FF5800F823FB7304E0BB7B072B01D1F723FB736A
:10FF680097F90F3018461037BD4680BD80B584B06C
:10FF780000AF78600023FB730023BB8107F10C03FB
:10FF88007968184600F036F80346FB7397F90F3086
:10FF9800002B29D107F10C017B680122402000F0D9
:10FFA80029FF0346FB7397F90F30002B1CD17B68A0
:10FFB8005A797B685A727B68DA797B68DA72012031
:10FFC80005F0A2F807F10C03591C7B6801224120B7
:10FFD80000F010FF0346FB7397F90F30002B03D195
:10FFE8007B689A797B689A7297F90F3018461037B0
:08FFF800BD4680BD80B584B058
:020000040801F1
:1000000000AF786039603B6802227968402000F0D8
:100010009FFE0346FB7397F90F30002B1BD1396805
:10002000786800F01EF80346FB7397F90F30002B39
:1000300011D13968786800F047F80346FB7397F9E7
:100040000F30002B07D17B6801333968184600F068
:1000500065F80346FB7397F90F3018461037BD4615
:1000600080BD80B485B000AF786039600023FB7339
:100070000023BB7300237B733B685B790F2B1AD87B
:100080003B685A793B685B7A9A4216D03B685B7949
:100090007B737B681B7823F00F03BB7397F90D30DC
:1000A00003F00F035AB297F90E3013435BB2DAB282
:1000B0007B681A7001E0FC23FB7397F90F30184638
:1000C0001437BD4680BC704780B485B000AF7860FF
:1000D00039600023FB730023BB7300237B733B68F1
:1000E000DB79022B11D83B68DA793B68DB7A9A42DC
:1000F0000DD03B68DB797B737B681B7823F0700342
:10010000BB737B68BA7B1A7001E0FC23FB7397F921
:100110000F3018461437BD4680BC704780B485B098
:1001200000AF786039600023FB730023BB730023AA
:100130007B733B689B790C2B1AD83B689A793B6898
:100140009B7A9A4216D03B689B797B737B681B78BD
:1001500023F00F03BB7397F90D3003F00F035AB26E
:1001600097F90E3013435BB2DAB27B681A7001E084
:10017000FC23FB7397F90F3018461437BD4680BC3B
:10018000704780B584B000AF78600023FB73786857
:1001900000F011F80346FB7397F90F30002B04D1E0
:1001A000786800F09EF80346FB7397F90F30184605
:1001B0001037BD4680BD80B584B000AF78600023A5
:1001C000FB730023BB737B681B790F2B2AD97B68D9
:1001D0001B79122B26D87B681A797B681B7A9A4286
:1001E00023D007F10E037968184600F025F803467E
:1001F000FB7397F90F30002B17D17B68191D7B68B3
:1002000001227E2000F0FAFD0346FB737B681B7A17
:10021000102B02D1052004F07BFF7B681A797B68E4
:100220001A7202E0FC23FB7300E000BF97F90F3065
:1002300018461037BD4680BD80B584B000AF7860E9
:1002400039600023BB7300237B733B68012279680C
:10025000402000F07DFD0346FB7397F90F30002B23
:1002600039D13B681B79122B20D17B681B7803F0B6
:100270007F03BB73BB7B63F07F03DAB27B681A70CA
:100280003B6801227968402000F0B8FD0346FB730B
:1002900097F90F30002B1ED107F10D013B680222A8
:1002A000582000F0ABFD0346FB7314E07B681B781D
:1002B0005BB2002B0FDA7B681B7803F07F03BB7304
:1002C0007B68BA7B1A703B6801227968402000F095
:1002D00095FD0346FB7397F90F3018461037BD465E
:1002E00080BD80B584B000AF78600023FB737B686D
:1002F0001B7B142B07D07B681B7B152B03D07B68E3
:100300001B7B172B27D17B681A7B7B681B7C9A424F
:1003100023D07B6803F10C017B6801227E2000F072
:100320006DFD0346FB737B681B7C142B03D15120AE
:1003300004F0EEFE0AE07B681B7C172B06D17B687D
:100340001B7B152B02D10A2004F0E2FE7B681A7B8E
:100350007B681A7401E0FC23FB7397F90F30184691
:100360001037BD4680BD000090B587B000AF3B1D83
:1003700000221A605A609A603B1D184600F0C4F8CB
:1003800003467B61B7F90A301846FEF7A7F84FF02D
:100390000002084BFEF736FA03460C461846214683
:1003A000FEF7FEFB03463B613B6918461C37BD4622
:1003B00090BD00BF0000D04090B587B000AF3B1D9E
:1003C00000221A605A609A603B1D184600F09CF8A3
:1003D00003467B61B7F90C301846FEF77FF84FF003
:1003E0000002084BFEF70EFA03460C46184621465B
:1003F000FEF7D6FB03463B613B6918461C37BD46FA
:1004000090BD00BF0000D04090B587B000AF3B1D4D
:1004100000221A605A609A603B1D184600F074F87A
:1004200003467B61B7F90E301846FEF757F84FF0D8
:100430000002094BFEF7E6F903460C461846214632
:10044000FEF7AEFB03463B613B6983F00043184671
:100450001C37BD4690BD00BF0000D04080B582B0C3
:1004600000AF0023FB800023BB80084B1A683B1DB4
:100470001146184600F00CF80346002B01D1BB884A
:10048000FB80FB8818460837BD4680BD74090020F4
:1004900080B584B000AF786039600023FB7300231F
:1004A0003B7200237B720023BB810023FB723B68FD
:1004B000002B01D1FF23FB7397F90F30002B02D0E3
:1004C000FF23FB7319E007F108013B680222782043
:1004D00000F03EFC0346FB7397F90F30002B0CD164
:1004E0003B7AFB727B7A9BB21B02BB81FB7A9AB28E
:1004F000BB8913439AB27B681A8097F90F3018466C
:100500001037BD4680BD000080B584B000AF786074
:100510000023FB731E4B19681E4B1A681E4B1B6889
:10052000032000F03BF80346FB7397F90F30002BD4
:1005300028D1184B1B68B3F900207B681A80154B33
:100540001A687B680233B2F902201A80114B1A68CC
:100550007B680433B2F904201A800D4B1A687B685B
:100560000633B2F900201A80094B1A687B680833F9
:10057000B2F902201A80064B1A687B680A33B2F976
:1005800004201A8097F90F3018461037BD4680BDF9
:10059000700900206C0900207409002080B586B025
:1005A00000AFB9607A603B600346FB730023FB75C4
:1005B0000023BB75FB7B03F007037B757B7D9B10E2
:1005C000DBB203F001033B757B7D03F003037B7516
:1005D0003B7D012B01D10323BB753B68002B3AD037
:1005E0007B7D022B12D0032B1FD0012B2FD1BB6898
:1005F000002B02D1FF23FB752FE0BB7D3A68B96861
:10060000184600F0B5F90346FB7526E07B68002B21
:1006100002D1FF23FB7520E0BB7D3A68796818465C
:1006200000F021F80346FB7517E07B68002B02D031
:10063000BB68002B02D1FF23FB750EE0B87D3B6841
:100640007A68B96800F04EFA0346FB7505E0FB23B3
:10065000FB7500BF01E0FF23FB7597F917301846C3
:100660001837BD4680BD80B58EB000AF0346B96077
:100670007A60FB73002387F8363007F114030022F9
:100680001A605A609A60C3F80B20002387F835304F
:1006900000237B860023FB62FB7B002B40F09B80CA
:1006A00007F114017B6806220C2000F051FB034681
:1006B00087F8373097F93730002B40F0888097F86B
:1006C00036305A1C87F8362007F13802134413F8E5
:1006D000243C87F82B3097F836305A1C87F83620A0
:1006E00007F13802134413F8243C87F82A3097F8AE
:1006F0002A301B021AB297F82B301BB213431BB2DD
:100700001846FEF757FB03467B62786AFEF76CFDDE
:1007100003461AB2BB681A8097F836305A1C87F81D
:10072000362007F13802134413F8243C87F82B30A5
:1007300097F836305A1C87F8362007F138021344F0
:1007400013F8243C87F82A3097F82A301B021AB293
:1007500097F82B301BB213431BB21846FEF72AFB47
:1007600003467B62786AFEF73FFD03461AB2BB6818
:100770005A8097F836305A1C87F8362007F138022D
:10078000134413F8243C87F82B3097F836305A1C62
:1007900087F8362007F13802134413F8243C87F811
:1007A0002A3097F82A301B021AB297F82B301BB266
:1007B00013431BB21846FEF7FDFA03467B62786AC4
:1007C000FEF712FD03461AB2BB689A80CAE0FE2308
:1007D00087F83730C6E0FB7B9BB20C339AB207F147
:1007E00014017B680C2000F0B3FA034687F8373019
:1007F00097F93730002B40F0B28097F836305A1C0A
:1008000087F8362007F13802134413F8243C87F8A0
:100810002B3097F836305A1C87F8362007F138020B
:10082000134413F8243C87F82A3097F82A301B0227
:100830001AB297F82B301BB213431BB21846FEF7BF
:10084000B9FA03467B62786AFEF7CEFC03461AB219
:10085000BB681A8097F836305A1C87F8362007F1A3
:100860003802134413F8243C87F82B3097F83630BD
:100870005A1C87F8362007F13802134413F8243C39
:1008800087F82A3097F82A301B021AB297F82B30D3
:100890001BB213431BB21846FEF78CFA03467B6269
:1008A000786AFEF7A1FC03461AB2BB685A8097F833
:1008B00036305A1C87F8362007F13802134413F8F3
:1008C000243C87F82B3097F836305A1C87F83620AE
:1008D00007F13802134413F8243C87F82A3097F8BC
:1008E0002A301B021AB297F82B301BB213431BB2EB
:1008F0001846FEF75FFA03467B62786AFEF774FCDF
:1009000003461AB2BB689A8097F83630063387F8E8
:10091000363097F836305A1C87F8362007F13802FF
:10092000134413F8243C87F8353097F836305A1CB6
:1009300087F8362007F13802134413F8243C9BB2A1
:100940001B027B8697F836305A1C87F8362007F151
:100950003802134413F8243C1B04FB6202E0FE231C
:1009600087F8373097F9373018463837BD4680BD9D
:1009700080B58CB000AF0346B9607A60FB7300238A
:1009800087F82E3007F1100300221A605A601A729D
:10099000002387F82D3000237B8500237B62FB7BBF
:1009A0009BB206339AB207F110017B68122000F067
:1009B000CFF9034687F82F3097F92F30002B40F0FE
:1009C000888097F82E305A1C87F82E2007F13002C5
:1009D000134413F8203C87F8233097F82E305A1C24
:1009E00087F82E2007F13002134413F8203C87F8D3
:1009F000223097F822301B021AB297F823301BB22C
:100A000013431BB21846FEF7D5F90346FB61F8699C
:100A1000FEF7EAFB03461AB2BB681A8097F82E303D
:100A20005A1C87F82E2007F13002134413F8203C9B
:100A300087F8233097F82E305A1C87F82E2007F1BC
:100A40003002134413F8203C87F8223097F8223004
:100A50001B021AB297F823301BB213431BB218467D
:100A6000FEF7A8F90346FB61F869FEF7BDFB0346F4
:100A70001AB2BB685A8097F82E305A1C87F82E207D
:100A800007F13002134413F8203C87F8233097F81D
:100A90002E305A1C87F82E2007F13002134413F829
:100AA000203C87F8223097F822301B021AB297F8C0
:100AB00023301BB213431BB21846FEF77BF90346E3
:100AC000FB61F869FEF790FB03461AB2BB689A8097
:100AD00002E0FE2387F82F3097F92F301846303781
:100AE000BD4680BD80B58CB000AFB9607A603B6018
:100AF0000346FB73002387F82E3007F11003002212
:100B00001A605A609A60C3F80B20002387F82D30D2
:100B100000237B8500237B62FB7B9BB20C339AB264
:100B200007F110013B680C2000F012F9034687F82A
:100B30002F3097F92F30002B40F0018197F82E309D
:100B40005A1C87F82E2007F13002134413F8203C7A
:100B500087F8233097F82E305A1C87F82E2007F19B
:100B60003002134413F8203C87F8223097F82230E3
:100B70001B021AB297F823301BB213433B847B68E5
:100B80003A8C1A8097F82E305A1C87F82E2007F1DD
:100B90003002134413F8203C87F8233097F82E30A6
:100BA0005A1C87F82E2007F13002134413F8203C1A
:100BB00087F8223097F822301B021AB297F82330B8
:100BC0001BB213433B847B683A8C5A8097F82E30D3
:100BD0005A1C87F82E2007F13002134413F8203CEA
:100BE00087F8233097F82E305A1C87F82E2007F10B
:100BF0003002134413F8203C87F8223097F8223053
:100C00001B021AB297F823301BB213433B847B6854
:100C10003A8C9A8097F82E305A1C87F82E2007F1CC
:100C20003002134413F8203C87F8233097F82E3015
:100C30005A1C87F82E2007F13002134413F8203C89
:100C400087F8223097F822301B021AB297F8233027
:100C50001BB213433B84BB683A8C1A8097F82E3042
:100C60005A1C87F82E2007F13002134413F8203C59
:100C700087F8233097F82E305A1C87F82E2007F17A
:100C80003002134413F8203C87F8223097F82230C2
:100C90001B021AB297F823301BB213433B84BB6884
:100CA0003A8C5A8097F82E305A1C87F82E2007F17C
:100CB0003002134413F8203C87F8233097F82E3085
:100CC0005A1C87F82E2007F13002134413F8203CF9
:100CD00087F8223097F822301B021AB297F8233097
:100CE0001BB213433B84BB683A8C9A80FB7B032B7B
:100CF00028D197F82E305A1C87F82E2007F13002A1
:100D0000134413F8203C87F82D3097F82E305A1CE6
:100D100087F82E2007F13002134413F8203C9BB2D1
:100D20001B027B8597F82E305A1C87F82E2007F17E
:100D30003002134413F8203C1B047B6202E0FE23C4
:100D400087F82F3097F92F3018463037BD4680BDD1
:100D500080B586B000AFB9607B600346FB73134675
:100D6000BB810023FB757B68002B02D1FF23FB7541
:100D70000DE0BB89F97BBA68786800F00FF803468C
:100D8000FB7597F91730002B01D0FE23FB7597F9FF
:100D9000173018461837BD4680BD000080B586B0B4
:100DA00002AFF8607A601A460B46FB7213463B812D
:100DB000FB685B789BB25B0099B207F10B024FF4C2
:100DC0007A73009301230C4805F0C0FC0A2004F05C
:100DD0009FF9FB685B789BB25B0099B23A894FF44C
:100DE0007A73009313467A68034805F0ADFD00233B
:100DF00018461037BD4680BD1809002080B586B062
:100E000000AFB9607B600346FB731346BB810023D0
:100E1000FB750023BB757B68002B02D1FF23FB759C
:100E200010E0BB89F97BBA68786800F011F80346D6
:100E3000FB75012004F06CF997F91730002B01D0F5
:100E4000FE23FB7597F9173018461837BD4680BD4D
:100E500090B5C9B002AF07F10C0420600846391DF7
:100E60000A60194607F10B0302461A7007F10803DE
:100E70000A461A8007F114031846FF231A46002178
:100E80000CF069FF07F1140307F10B0212781A70D6
:100E90000123C7F8143112E0D7F81431013B3A1D91
:100EA00012681344197807F11402D7F81431134467
:100EB0000A461A70D7F814310133C7F8143107F114
:100EC00008031B880133D7F814219A42E4DB07F1A9
:100ED0000C031B685B789BB25B0099B207F10803B7
:100EE0001B88013398B207F114024FF47A73009310
:100EF0000346044805F02AFC0023184607F58E77C0
:100F0000BD4690BD1809002080B584B000AF786060
:100F10000B46FB700023FB737B681B7C002B15D1F9
:100F20004FF400730222842178680CF064FD7B6822
:100F300001229A664FF400730222042178680CF0B3
:100F40005AFD7B680122C3F8A82112E04023022247
:100F5000842178680CF04FFD7B6801229A6640235B
:100F60000222042178680CF046FD7B680122C3F858
:100F7000A82108230322822178680CF03CFD7B68BD
:100F800001221A644FF407700CF05CFE02467B6885
:100F9000C3F8B8227B68D3F8B832002B02D1012302
:100FA000FB7326E07B68D3F8B832BB607B68D3F86C
:100FB000BC321B689847BB680022C3F81422BB6888
:100FC0000022C3F818227B681B7C002B09D1BB6868
:100FD000D3F804224FF40073042178680CF0FCFD70
:100FE00007E0BB68D3F804224023042178680CF0A2
:100FF000F3FDFB7B18461037BD4680BD80B584B03D
:1010000000AF78600B46FB700023FB738421786887
:101010000CF017FD7B6800229A66042178680CF0BA
:1010200010FD7B680022C3F8A821822178680CF0AB
:1010300008FD7B6800221A647B68D3F8B832002B65
:101040000ED07B68D3F8BC325B6898477B68D3F8D6
:10105000B83218460CF002FE7B680022C3F8B822B2
:10106000FB7B18461037BD4680BD80B586B000AF0B
:10107000786039607B68D3F8B8323B610023FB733A
:101080000023BB810023FB753B681B7803F06003E2
:10109000002B39D0202B7CD13B68DB88002B29D05A
:1010A0003B681B785BB2002B11DA7B68D3F8BC324B
:1010B0009B683A68507839693A68D28898473969A4
:1010C0003B68DB881A4678680CF094F968E03B6866
:1010D0005A783B6983F800223B68DB88DAB23B69C7
:1010E00083F8012239693B68DB881A4678680CF07E
:1010F000AFF955E07B68D3F8BC329B683A6850780A
:101100000022396898474BE03B685B780A2B17D080
:101110000B2B29D0002B33D17B6893F89C32032B07
:1011200007D107F10C030222194678680CF062F926
:101130002EE0396878680CF0F3F80223FB7527E09D
:101140007B6893F89C32032B07D107F10F03012230
:10115000194678680CF04EF91AE0396878680CF096
:10116000DFF80223FB7513E07B6893F89C32032BB6
:101170000DD0396878680CF0D3F80223FB7506E0CF
:10118000396878680CF0CCF80223FB7500E000BFEA
:1011900006E0396878680CF0C3F80223FB7500BFDD
:1011A000FB7D18461837BD4680BD80B584B000AFC2
:1011B00078600B46FB707B68D3F8B832FB607B68C5
:1011C000D3F8C032BB607B68D3F8B832002B3AD07A
:1011D000FA78796813469B0013449B000B441C3338
:1011E0001B68002B29D0FA78796813469B001344BA
:1011F0009B000B441C331A68F978B8680B469B00B7
:101200000B44DB00034438331B68B2FBF3F103FBF0
:1012100001F3D31A002B10D1FA78796813469B009A
:1012200013449B000B441C3300221A60F9780023FE
:10123000002278680CF0ADFC03E0FB680022C3F8E4
:101240001422002300E0022318461037BD4680BD5B
:1012500080B584B000AF78600B46FB707B68D3F834
:10126000B832FB60FB78194678680CF0D8FC02466F
:10127000FB68C3F80C227B68D3F8B832002B0DD082
:101280007B68D3F8BC32DB68FA68D2F80402FA68EB
:1012900002F5037211469847002300E00223184626
:1012A0001037BD4680BD80B584B000AF78607B68E4
:1012B000D3F8B832FB607B68D3F8BC32002B15D072
:1012C000FB6893F80032FF2B10D07B68D3F8BC3258
:1012D0009B68FA6892F80002F968FA6892F80122AD
:1012E00092B29847FB68FF2283F800220023184639
:1012F0001037BD4680BD000080B483B000AF786079
:101300007B6843221A80034B18460C37BD4680BCCD
:10131000704700BF8C00002080B483B000AF7860BD
:101320007B6843221A80034B18460C37BD4680BCAD
:10133000704700BF4800002080B483B000AF7860E1
:101340007B6843221A80034B18460C37BD4680BC8D
:10135000704700BFD000002080B483B000AF786039
:101360007B680A221A80034B18460C37BD4680BCA6
:10137000704700BF0400002080B487B000AFF86061
:10138000B9601346FB80FB68D3F8B8327B617B6998
:10139000BA68C3F80822FA887B69C3F810220023D0
:1013A00018461C37BD4680BC704780B485B000AF7E
:1013B000786039607B68D3F8B832FB60FB683A68C4
:1013C000C3F80422002318461437BD4680BC70477A
:1013D00080B584B000AF78607B68D3F8B832FB602A
:1013E0007B68D3F8B832002B1CD0FB68D3F81432DA
:1013F000002B15D1FB680122C3F81422FB68D3F837
:1014000010227B68DA66FB68D3F80822FB68D3F801
:1014100010329BB2842178680CF0BBFB002302E001
:10142000012300E0022318461037BD4680BD80B579
:1014300084B000AF78607B68D3F8B832FB607B681B
:10144000D3F8B832002B17D07B681B7C002B09D156
:10145000FB68D3F804224FF40073042178680CF081
:10146000BBFB07E0FB68D3F8042240230421786823
:101470000CF0B2FB002300E0022318461037BD46F3
:1014800080BD000080B400AFBFF34F8F054BDB6819
:1014900003F4E0620349044B1343CB60BFF34F8F67
:1014A00000BFFDE700ED00E00400FA0580B500AFE5
:1014B000002205490548FFF75FFF05490348FFF78C
:1014C00074FF0023184680BD640D00201415002011
:1014D0007809002080B400AF00231846BD4680BCC8
:1014E0007047000080B582B000AF03463960FB71E1
:1014F0001346BB80FB79232B62D801A252F823F05C
:10150000C1150108C1150108C1150108C11501085F
:10151000C1150108C1150108C1150108C11501084F
:10152000C1150108C1150108C1150108C11501083F
:10153000C1150108C1150108C1150108C11501082F
:10154000C1150108C1150108C1150108C11501081F
:10155000C1150108C1150108C1150108C11501080F
:10156000C1150108C1150108C1150108C1150108FF
:10157000C1150108C1150108C1150108C1150108EF
:1015800091150108C1150108C1150108C11501080F
:101590003B681B781A463B6801331B781B021344D7
:1015A000B3F5966F0ED10A4B1B78042B01D9FFF7C8
:1015B00069FF074B1B780133DAB2054B1A7001E063
:1015C00000BF00E000BF002318460837BD4680BDBD
:1015D000C505002080B582B000AF786039600D4B42
:1015E00001221A703B681B681A4679680A480CF099
:1015F000A7FB3B681B68094A136079680848FFF736
:10160000D4FE0748FFF713FF012318460837BD46ED
:1016100080BD00BF600D0020501100204C11002043
:101620001415002080B584B000AF78600B467B8035
:101630000023FB730D4BD3F8B832BB60BB68D3F803
:101640001432002B01D001230BE07B881A46796805
:101650000648FFF791FE0548FFF7BAFE0346FB7305
:10166000FB7B18461037BD4680BD00BF1415002017
:1016700080B584B000AF78600B46FB700023FB732D
:101680007B68164AC3F8BC22154B1B68FA781146D2
:101690007868984703461A46FB7B1344FB737B68C4
:1016A000D3F8B8320F4A13607B680F4AC3F8BC22E4
:1016B0000E4B1B68FA7811467868984703461A461D
:1016C000FB7B1344FB737B68D3F8B832084A136082
:1016D000FB7B18461037BD4680BD00BFF0020020DE
:1016E000DC010020C80500201401002010000020AB
:1016F000CC05002080B584B000AF78600B46FB704D
:101700000023FB73164B1A687B68C3F8B8227B680A
:10171000144AC3F8BC22144B5B68FA781146786807
:10172000984703461A46FB7B1344FB730F4B1A681A
:101730007B68C3F8B8227B680D4AC3F8BC220D4B06
:101740005B68FA7811467868984703461A46FB7B2F
:101750001344FB73FB7B18461037BD4680BD00BFAA
:10176000C8050020F0020020DC010020CC0500208C
:10177000140100201000002080B582B000AF786016
:10178000064B1B6978689847054B1B697868984732
:10179000034618460837BD4680BD00BFDC01002067
:1017A0001000002080B582B000AF786039603B68DF
:1017B0001B7803F00303012B02D0022B28D056E044
:1017C0003B689B88002B03D0012B11D000BF4EE05B
:1017D000294B1A687B68C3F8B8227B68274AC3F88C
:1017E000BC22274B9B6839687868984703463FE0DE
:1017F000244B1A687B68C3F8B8227B68224AC3F876
:10180000BC22224B9B6839687868984703462FE0D2
:101810003B689B88042B19D0042B02DC012B05D0DC
:1018200024E0812B02D0842B10D01FE0124B1A68C9
:101830007B68C3F8B8227B68104AC3F8BC22104BFF
:101840009B68396878689847034611E00D4B1A6821
:101850007B68C3F8B8227B680B4AC3F8BC220B4BE9
:101860009B68396878689847034601E000BF002309
:1018700018460837BD4680BDC8050020F00200208C
:10188000DC010020CC050020140100201000002005
:1018900080B582B000AF78600B46FB70FB7863F0D8
:1018A0007F03DBB2812B04D0842B13D000BF022333
:1018B00020E0124B1A687B68C3F8B8227B68104A94
:1018C000C3F8BC220F4B5B69FA78114678689847D9
:1018D00003460FE00C4B1A687B68C3F8B8227B689C
:1018E0000A4AC3F8BC220A4B5B69FA781146786849
:1018F0009847034618460837BD4680BDC8050020F6
:10190000F0020020DC010020CC05002014010020A2
:101910001000002080B582B000AF78600B46FB70ED
:10192000FB78012B04D0042B13D000BF022320E04E
:10193000124B1A687B68C3F8B8227B68104AC3F858
:10194000BC22104B9B69FA78114678689847034689
:101950000FE00D4B1A687B68C3F8B8227B680B4A0E
:10196000C3F8BC220A4B9B69FA78114678689847FD
:10197000034618460837BD4680BD00BFC805002095
:10198000F0020020DC010020CC0500201401002022
:101990001000002080B483B000AF78607B687322B1
:1019A0001A80034B18460C37BD4680BC704700BFF9
:1019B0005C01002080B483B000AF78607B680A22AD
:1019C0001A80034B18460C37BD4680BC704700BFD9
:1019D000D001002080B584B000AF78600B46FB706A
:1019E0000023FB7302230322812178680CF003F8A3
:1019F0007B680122DA6202230322012178680BF05E
:101A0000FAFF7B680122C3F86C2118200CF01AF948
:101A100002467B68C3F8B8227B68D3F8B832002B43
:101A200002D10123FB7311E07B68D3F8B832BB60AD
:101A3000BB6800221A757B68D3F8BC325B68984794
:101A4000BA680223012178680CF0C6F8FB7B1846BF
:101A50001037BD4680BD80B582B000AF78600B46C0
:101A6000FB70812178680BF0ECFF7B680022DA6262
:101A7000012178680BF0E5FF7B680022C3F86C2138
:101A80007B68D3F8B832002B0ED07B68D3F8BC3219
:101A90009B6898477B68D3F8B83218460CF0DEF89C
:101AA0007B680022C3F8B822002318460837BD46D9
:101AB00080BD000080B588B000AF786039607B6879
:101AC000D3F8B8323B610023FB830023BB610023C2
:101AD000FB810023FB753B681B7803F06003002B40
:101AE00051D0202B40F0D8803B685B78023B092B1B
:101AF00041D801A252F823F0511B01082F1B010805
:101B0000771B0108771B0108771B0108771B010869
:101B1000771B0108611B01083F1B0108211B0108FD
:101B20003B685B88DBB21A463B695A602AE03B6936
:101B300004330122194678680BF05CFC22E03B6814
:101B40005B881B0A9BB2DBB21A463B699A6019E0BC
:101B50003B6908330122194678680BF04BFC11E011
:101B60003B6901221A6139693B68DB881A4678684B
:101B70000BF06EFC06E0396878680BF0D1FB0223AD
:101B8000FB7500BF8FE03B685B780B2B7CD801A214
:101B900052F823F0C51B0108891C0108891C0108A3
:101BA000891C0108891C0108891C0108ED1B01081A
:101BB000891C0108891C0108891C01083B1C0108BB
:101BC000631C01087B6893F89C32032B07D107F153
:101BD0000E030222194678680BF00CFC5BE03968B2
:101BE00078680BF09DFB0223FB7554E03B685B8833
:101BF0001B0A9BB2222B0BD13B68DB883F2B28BFF3
:101C00003F23FB837B68D3F8BC321B68BB610DE0CC
:101C10003B685B881B0A9BB2212B07D1244BBB611D
:101C20003B68DB88092B28BF0923FB83FB8B1A4603
:101C3000B96978680BF0DEFB2DE07B6893F89C3285
:101C4000032B07D13B690C330122194678680BF04E
:101C5000D1FB20E0396878680BF062FB0223FB754A
:101C600019E07B6893F89C32032B06D13B685B88B4
:101C7000DBB21A463B69DA600DE0396878680BF030
:101C80004FFB0223FB7506E0396878680BF048FBD0
:101C90000223FB7500BF06E0396878680BF040FB53
:101CA0000223FB7500BFFB7D18462037BD4680BD73
:101CB0009802002080B586B000AFF860B960134686
:101CC000FB80FB68D3F8B8327B61FB6893F89C32E9
:101CD000032B0FD17B691B7D002B09D17B6901226E
:101CE0001A75FB88BA688121F8680BF052FF01E091
:101CF000012300E0002318461837BD4680BD0000D0
:101D000080B483B000AF78607B6829221A80034BCF
:101D100018460C37BD4680BC704700BF1402002037
:101D200080B483B000AF78607B6829221A80034BAF
:101D300018460C37BD4680BC704700BF40020020EB
:101D400080B483B000AF78607B6829221A80034B8F
:101D500018460C37BD4680BC704700BF6C0200209F
:101D600080B483B000AF78600B46FB707B68D3F81B
:101D7000B83200221A75002318460C37BD4680BCC5
:101D8000704780B584B000AF78600B46FB707B680D
:101D9000D3F8B832FB607B68D3F8BC32DB68FA68F2
:101DA0001078FA68527811469847FA6802230121A0
:101DB00078680BF011FF002318461037BD4680BD30
:101DC00080B584B000AF78607B68D3F8B832FB6030
:101DD000FB681B69012B0CD17B68D3F8BC32DB6834
:101DE000FA681078FA68527811469847FB68002222
:101DF0001A61002318461037BD4680BD80B483B0F9
:101E000000AF78607B680A221A80034B18460C37B3
:101E1000BD4680BC704700BFA402002080B400AF64
:101E200000231846BD4680BC704780B400AF002335
:101E30001846BD4680BC704780B483B000AF0346EF
:101E40000A46FB711346BB71002318460C37BD468A
:101E500080BC704780B582B000AF78602021786880
:101E600000F016FA00BF0837BD4680BD80B582B0CD
:101E700000AF78603521786800F00AFA00BF0837B3
:101E8000BD4680BD80B582B000AF786030217868F3
:101E900000F0FEF900BF0837BD4680BD80B582B0B6
:101EA00000AF78603721786800F0F2F900BF08379A
:101EB000BD4680BD80B582B000AF786032217868C1
:101EC00000F062FB00BF0837BD4680BD80B582B020
:101ED00000AF78603321786800F056FB00BF083708
:101EE000BD4680BD80B582B000AF78602D21786896
:101EF00000F000FB00BF0837BD4680BD80B582B052
:101F000000AF78602921786800F064FA034618462B
:101F10000837BD4680BD80B582B000AF78602A2109
:101F2000786800F057FA034618460837BD4680BD6A
:101F300080B582B000AF78602B21786800F04AFA53
:101F4000034618460837BD4680BD80B582B000AF55
:101F500078603421786800F017FB00BF0837BD4671
:101F600080BD80B582B000AF78602F21786800F026
:101F70000BFB00BF0837BD4680BD80B582B000AF07
:101F800078603621786800F0FFFA00BF0837BD4658
:101F900080BD80B586B000AF0346FB71FB791BB2F4
:101FA0007B8107F108031846FFF79CFF01231846C1
:101FB0001837BD4680BD80B584B000AF3B4618469B
:101FC000FFF748FF642003F0A3F800F005F803468C
:101FD00018461037BD4680BD80B582B000AF2920BD
:101FE00000F052F80346002B01D1002344E02448BE
:101FF000FFF784FF234B1A68214BB3F90230012B02
:10200000B8BF01231BB21B01194610460CF0BAFBE6
:1020100002461C4B1A6000237B6025E0002000F084
:1020200033F80346002B01D1002325E0154B1A6835
:102030007B681B0113441846FFF76DFF0346002B16
:102040000CD1104B1A687B681B0113441846FFF72C
:102050006FFF0346002B03D100230DE000BF00E01B
:1020600000BF7B6801337B60054BB3F902301A4631
:102070007B689342D2DB012318460837BD4680BDFA
:10208000B4110020D005002080B582B000AF034617
:10209000FB7100F039F80346002BFAD0FB79002BD6
:1020A00008D0FB79184600F00BF80346002BF0D05F
:1020B000012300E0012318460837BD4680BD00001B
:1020C00080B483B000AF0346FB710B4B1B79FA79E8
:1020D0009A420AD1094B05221A80094B00221A7034
:1020E000084B00221A70012300E0002318460C3729
:1020F000BD4680BC704700BF54060020DA060020B1
:10210000DE060020D906002080B588B002AF3A462E
:102110004FF47A730093102364210F4804F014FCE9
:1021200000237B6110E03A467B6913441B78FB7403
:10213000FB7C184600F03CF80346002B01D001233D
:1021400006E07B6901337B617B690F2BEBDD0023AC
:1021500018461837BD4680BD1809002080B483B0EA
:1021600000AF124BDB7805337B710023FB7100233A
:10217000BB7108E0BB790D4AD25CFB791344FB715B
:10218000BB790133BB71BA797B799A42F2D37B79FF
:10219000064AD35CFA799A420CBF01230023DBB2D2
:1021A00018460C37BD4680BC704700BF540600205F
:1021B00080B582B000AF0346FB71324BB3F90030FB
:1021C000032B33D801A252F823F000BFDD21010810
:1021D000F52101080D22010815220108FB79552B74
:1021E00004D0284B00221A80002346E0264B5522BB
:1021F0001A7038E0FB79AA2B04D0224B00221A80F7
:1022000000233AE0204BAA225A702CE01E4AFB79A8
:10221000937028E0FB79792B04D91A4B00221A809D
:1022200000232AE0184AFB79D3701CE0154BB3F960
:1022300000301946144AFB795354124BB3F900305D
:102240001A46114BDB7805339A420BD10D4BB3F98B
:1022500000200E4B1A800B4B00221A80FFF77EFFE6
:1022600003460AE000BF074BB3F900309BB20133CD
:102270009BB21AB2034B1A80002318460837BD469A
:1022800080BD00BFD606002054060020DC060020DA
:1022900080B584B000AF78600B46FB707B68FA783D
:1022A0001A707B681B78184600F070F8F86000F030
:1022B0001FF8B860B968F86800F004F800BF10377C
:1022C000BD4680BD80B584B002AF786039603B68A0
:1022D0009AB24FF47A73009313467A6864210348E4
:1022E00004F034FA00BF0837BD4680BD180900204D
:1022F00080B483B000AF224B1B78002B01D00023A9
:1023000038E0204BB3F9003001337F2B01DD00238F
:1023100030E01C4BB3F90030DBB2053BDAB21A4BAC
:10232000DA700023FB7100233B6009E0164A3B682A
:1023300013441A78FB791344FB713B6801333B600B
:10234000104BB3F900301A463B689342EEDB0D4B5D
:10235000B3F9003019460C4AFB795354094BB3F9D1
:1023600000309BB201339BB21AB2064B1A80054B68
:10237000B3F9003018460C37BD4680BC704700BF2B
:10238000D8060020D4060020D405002080B483B0F5
:1023900000AF0346FB710C4B00221A700B4B552209
:1023A0001A700A4BAA225A70084B11229A70074AD7
:1023B000FB791371064B05221A80044B18460C3723
:1023C000BD4680BC704700BFD8060020D405002061
:1023D000D406002080B582B000AF78600B46FB7059
:1023E000FB781846FFF76CFE0346002B24D07B6871
:1023F000FA781A7000F046F803461A467B685A804D
:1024000000F040F803461A467B689A8000F03AF8DC
:1024100003461A467B68DA8000F034F803461A4611
:102420007B681A8100F02EF803461A467B685A81B1
:1024300000F008F8012300E0002318460837BD46E5
:1024400080BD000080B400AF0B4B1B78002B04D084
:10245000094B00221A7000230AE0084BB3F9002050
:10246000074BB3F900309A420CBF01230023DBB2C3
:102470001846BD4680BC7047D9060020DA06002009
:10248000DC06002080B483B000AF154BB3F9002008
:10249000144BB3F900309A4203DA134B1B78002B2C
:1024A00004D0124B01221A70002313E00C4BB3F935
:1024B00000301A460E4B13441B889BB2FB80084B1E
:1024C000B3F900309BB202339BB21AB2044B1A80AC
:1024D000B7F9063018460C37BD4680BC704700BFC0
:1024E000DA060020DC060020DE060020D9060020E7
:1024F0005406002080B584B000AF78600B46FB70B6
:102500007B68FA781A707B681B781846FFF73EFFE5
:10251000F8607B68B3F90230184600F00BF8FFF75B
:10252000E7FEB860B968F868FFF7CCFE00BF103767
:10253000BD4680BD80B483B000AF0346FB800F4B27
:10254000B3F9003002337F2B03D90D4B01221A70EF
:1025500010E00A4BB3F900301A460A4B1344FA88CC
:102560001A80064BB3F900309BB202339BB21AB209
:10257000024B1A800C37BD4680BC7047D406002041
:10258000D8060020D405002080B584B000AF786064
:102590000B46FB707B68FA781A707B681B781846CC
:1025A000FFF7F4FEF8607B68DA687B68B3F90A30FD
:1025B0001946104600F00CF8FFF79AFEB860B968AB
:1025C000F868FFF77FFE00BF1037BD4680BD0000F2
:1025D00080B582B000AF78603960124BB3F900303B
:1025E0001A463B6813447F2B03D90F4B01221A7004
:1025F00015E00C4BB3F900301A460C4B13443A6803
:10260000796818460BF09CFB3B689AB2054BB3F90E
:1026100000309BB213449BB21AB2024B1A800837A7
:10262000BD4680BDD4060020D8060020D405002079
:1026300080B400AF034BB3F904301846BD4680BCEC
:10264000704700BFB411002080B590B000AFF860B3
:10265000B9607A60F868FBF7E7FD034687F83B301E
:1026600007F1140300221A605A609A60DA601A6156
:1026700097F83B303B75BB68DBB2BB757B68DBB260
:10268000FB75BB68FF2B09DDFF237B75BB685A42D6
:10269000DBB2D2B258BF5342DBB2BB750023FB633F
:1026A0000DE0FB6BFA681A44FB6B0433127807F1F8
:1026B00040010B4403F82C2CFB6B0133FB6397F8B0
:1026C0003B300133FA6B9A42EBDB97F83B309BB21D
:1026D00004339BB21BB27B8607F114037B6307F1C3
:1026E00028031846FFF731FC2E20FFF7CDFC0346E8
:1026F00018464037BD4680BD80B584B000AF3B462C
:102700001846FFF7B3FB2E20FFF7BEFC0346184622
:102710001037BD4680BD80B582B000AF0346FB7167
:10272000FB79002B02D0012B05D009E000F056F90F
:102730000346DBB205E000F0C1F90346DBB200E07E
:10274000002318460837BD4680BDB0B594B000AF31
:1027500078606FF00043FB644FF6FF73A7F84A30D0
:1027600000237B6423E007F10C03796C184600F02A
:10277000C7F8B7F90E30A03BB7F90E20A03A02FB1C
:1027800003F2B7F91030783BB7F91010783901FB34
:1027900003F313443B643A6CFB6C9A4204DA3B6CDF
:1027A000FB647B6CA7F84A307B6C01337B6400F0E0
:1027B0000DF902467B6C9342D5DBB7F94A2007F14D
:1027C00030031146184600F09BF8B7F93230FB6130
:1027D000B7F934303B62B7F936307B62B7F938303D
:1027E000BB62B7F93A30FB627B681D4607F11C04F7
:1027F0000FCC0FC523682B6078685037BD46B0BD3D
:1028000080B58EB000AF78606FF000437B634FF609
:10281000FF737B860023FB6240E007F10803F96A3F
:10282000184600F085FAB7F90A301A46B7F90E30A3
:102830001344DA0F13445B10A3F1A002B7F90A3076
:102840001946B7F90E300B44D90F0B445B10A03B6F
:1028500003FB02F2B7F90C301946B7F910300B44FC
:10286000D90F0B445B10A3F17801B7F90C3018466F
:10287000B7F910300344D80F03445B10783B03FBD7
:1028800001F31344BB62BA6A7B6B9A4203DABB6AF8
:102890007B63FB6A7B86FB6A0133FB6200F029F8ED
:1028A0000246FB6A9342B8DBB7F9322007F11803FE
:1028B0001146184600F03CFAB7F91A301A467B6800
:1028C0001A60B7F91C301A467B685A60B7F91E3097
:1028D0001A467B689A60B7F920301A467B68DA603E
:1028E000B7F922301A467B681A6100BF3837BD46F7
:1028F00080BD80B500AF00F0E1F80346184680BD0A
:1029000080B582B000AF786039607B68396818465E
:1029100000F004F878680837BD4680BD90B585B0F2
:1029200000AF786039603B681BB2184600F018F8B9
:10293000F860FB68002B06D07A68FB6814460FCB62
:1029400084E80F0006E07B68044A1C4613460FCB60
:1029500084E80F0078681437BD4690BDC41100208C
:1029600080B485B000AF0346FB800023FB810023C9
:10297000BB601AE0134B1A68BB681B0113441B7839
:102980002A2B0FD1B7F90E309AB2013292B2FA81E6
:10299000B7F906209A4205D10A4B1A68BB681B0199
:1029A00013440AE0BB680133BB60074BB3F9023044
:1029B0001A46BB689342DDDB002318461437BD4638
:1029C00080BC7047D0050020B411002080B500AF56
:1029D00000F004F80346184680BD000080B483B0C0
:1029E00000AF0023FB8000233B6010E00F4B1A6810
:1029F0003B681B0113441B782A2B05D1B7F906301D
:102A00009BB201339BB2FB803B6801333B60084BB8
:102A1000B3F902301A463B689342E7DBB7F9063058
:102A200018460C37BD4680BC704700BFD00500205B
:102A3000B411002080B582B000AF786000F010F8CB
:102A400003461A467B68934204DC7B68002B01DD59
:102A5000012300E00023DBB218460837BD4680BDE5
:102A600080B400AF034BB3F904301846BD4680BCB8
:102A7000704700BFB411002080B582B000AF78600D
:102A80000B46FB70FB78002B02D0012B08D00FE027
:102A90007B681BB2184600F059F90346DBB208E028
:102AA0007B681BB2184600F089F90346DBB200E0F0
:102AB000002318460837BD4680BD000080B483B0AF
:102AC00000AF0023FB8000233B6010E00F4B1A682F
:102AD0003B681B0113441B782B2B05D1B7F906303B
:102AE0009BB201339BB2FB803B6801333B60084BD8
:102AF000B3F902301A463B689342E7DBB7F9063078
:102B000018460C37BD4680BC704700BFD00500207A
:102B1000B411002090B58DB000AFF860B9607A6054
:102B20007B685A1E07F12003B968184600F017F8B1
:102B3000B7F922303B61B7F924307B61B7F9263011
:102B4000BB61B7F92830FB61FB681C4607F1100335
:102B50000FCB84E80F00F8683437BD4690BD80B5D0
:102B600084B000AFF860B9607A60FB687A68B968D1
:102B7000184600F005F8F8681037BD4680BD000023
:102B800090B587B000AFF860B9607A60BB681BB2DF
:102B90007A6812B21146184600F018F878617B691D
:102BA000002B06D0FA687B6914460FCB84E80F002F
:102BB00006E0FB68044A1C4613460FCB84E80F006E
:102BC000F8681C37BD4690BDC411002080B485B0A4
:102BD00000AF03460A46FB801346BB800023FB81FF
:102BE0000023BB6025E0194B1A68BB681B01134426
:102BF0001B782A2B1AD1154B1A68BB681B0113448A
:102C0000B3F90A30B7F906209A420FD1B7F90E305E
:102C10009AB2013292B2FA81B7F904209A4205D1F0
:102C20000A4B1A68BB681B0113440AE0BB680133F6
:102C3000BB60074BB3F902301A46BB689342D2DB44
:102C4000002318461437BD4680BC7047D0050020CD
:102C5000B411002090B58DB000AFF860B9607A6013
:102C60007B685A1E07F12003B968184600F018F86F
:102C7000B7F922303B61B7F924307B61B7F92630D0
:102C8000BB61B7F92830FB61FB681C4607F11003F4
:102C90000FCB84E80F00F8683437BD4690BD0000C4
:102CA00090B587B000AFF860B9607A60BB681BB2BE
:102CB0007A6812B211461846FFF788FF78617B697F
:102CC000002B06D0FA687B6914460FCB84E80F000E
:102CD00006E0FB68044A1C4613460FCB84E80F004D
:102CE000F8681C37BD4690BDC411002080B582B085
:102CF00000AF0346FB71FB79002B02D0012B08D0FB
:102D00000FE0FFF76BFE03461846FCF753F8034647
:102D100008E0FFF7D3FE03461846FCF74BF80346DE
:102D200000E0024B18460837BD4680BD000080BF5A
:102D300080B582B000AF786039607B68396818462A
:102D4000FFF7ECFD78680837BD4680BD80B485B0DC
:102D500000AF0346FB800023FB810023BB601BE028
:102D6000144B1A68BB681B0113441B782A2B10D123
:102D7000104B1A68BB681B011344B3F90A30B7F94A
:102D800006209A4205D1B7F90E309BB201339BB2AF
:102D9000FB81BB680133BB60074BB3F902301A46B5
:102DA000BB689342DCDBB7F90E3018461437BD46DA
:102DB00080BC7047D0050020B411002080B485B0DD
:102DC00000AF0346FB800023FB810023BB601BE0B8
:102DD000144B1A68BB681B0113441B782B2B10D1B2
:102DE000104B1A68BB681B011344B3F90A30B7F9DA
:102DF00006209A4205D1B7F90E309BB201339BB23F
:102E0000FB81BB680133BB60074BB3F902301A4644
:102E1000BB689342DCDBB7F90E3018461437BD4669
:102E200080BC7047D0050020B411002080B584B06C
:102E300000AF3B461846FFF731F82E20FFF724F984
:102E4000034618461037BD4680BD80B588B000AF38
:102E50000346FB80FB88DBB23B77FB881B0A9BB2F7
:102E6000DBB27B770223FB8207F11C03BB6107F116
:102E70000C031846FFF781F82E20FFF705F90346EB
:102E800018462037BD4680BD80B5A2B000AF78603F
:102E90000B46FB707868FBF7C7F9034687F8833069
:102EA00007F10C036422002118460AF054FFFB7856
:102EB0003B7397F883300133DBB25B00DBB27B738B
:102EC0000023C7F8843011E0D7F884307A681A44B8
:102ED000D7F884300233127807F188010B4403F8E5
:102EE0007C2CD7F884300133C7F8843097F88330CE
:102EF000D7F884209A42E7DB97F883309BB20333FC
:102F00009BB21BB2A7F87A3007F10C03FB6707F1FD
:102F100070031846FFF725F82E20FFF7B5F8034693
:102F200018468837BD4680BD80B584B000AF3B46AB
:102F30001846FEF7A7FF2E20FFF7A6F8034618460F
:102F40001037BD4680BD80B588B000AF0346FB801A
:102F5000FB88DBB23B77FB881B0A9BB2DBB27B773B
:102F60000223FB8207F11C03BB6107F10C03184627
:102F7000FEF7A0FF2E20FFF787F8034618462037FC
:102F8000BD4680BD80B588B000AF0346FB80FB889E
:102F9000DBB23B77FB881B0A9BB2DBB27B77022359
:102FA000FB8207F11C03BB6107F10C031846FEF717
:102FB0008DFF002318462037BD4680BD90B5CFB0A9
:102FC00000AF07F110031A6007F1170302461A70E9
:102FD00007F116030A461A70002387F82B3107F110
:102FE000D8033222002118460AF0B5FEF02387F8F4
:102FF000D8300D2387F8D93007F117031B78512BF0
:1030000000F00C86762B00F00B860D2B01D000F023
:1030100008BE07F110031B681B7887F82B314FF0AF
:103020000003C7F8243107F12003DD4A92E80300CA
:10303000186004331970002387F83331002387F8B0
:10304000233107F11803D74A92E8030018600433CC
:10305000198002330A0C1A700023C7F81C310023B0
:1030600087F8323197F82B31032B00F2D18501A27A
:1030700052F823F085300108A5320108633B0108AE
:10308000793B010807F110031B6801331B78002B03
:1030900021D107F110031B6803331B78002B03D1E8
:1030A000682387F8323109E007F110031B68033306
:1030B0001B78012B02D1692387F8323107F1100305
:1030C0001B6802331B7897F8322111461846FCF72B
:1030D000D1F800F09FBD07F110031B6801331B7886
:1030E000012B40F0978507F110031B6802331B7812
:1030F000032B00F2D48001A252F823F00D31010815
:1031000079310108E531010851320108FDF72CF948
:10311000C7F824014FF00001D7F82401FCF73CF870
:103120000346002B02D0012387F83331D7F824312E
:1031300023F000431846FBF7E3F94FF000029A4BE7
:10314000FBF736FA03460C4618462146FBF708FD06
:10315000034687F8233107F1200397F833219A704B
:1031600007F1200397F82321DA7007F120030521E6
:103170001846FEF757FA93E0FDF71EF9C7F8240149
:103180004FF00001D7F82401FCF706F80346002BA6
:1031900002D0012387F83331D7F8243123F00043DC
:1031A0001846FBF7ADF94FF000027F4BFBF700FA32
:1031B00003460C4618462146FBF7D2FC034687F827
:1031C000233107F1200397F833219A7007F1200388
:1031D00097F82321DA7007F1200305211846FEF73E
:1031E00021FA5DE0FDF710F9C7F824014FF0000166
:1031F000D7F82401FBF7D0FF0346002B02D00123B0
:1032000087F83331D7F8243123F000431846FBF711
:1032100077F94FF00002644BFBF7CAF903460C46FE
:1032200018462146FBF79CFC034687F8233107F13B
:10323000200397F833219A7007F1200397F8232190
:10324000DA7007F1200305211846FEF7EBF927E0B5
:10325000FDF704F90346C7F81C31D7F81C311B0EE3
:10326000DAB207F11803DA70D7F81C311B0CDAB2A6
:1032700007F118031A71D7F81C311B0ADAB207F1EB
:1032800018035A71D7F81C31DAB207F118039A7093
:1032900007F1180307211846FEF7C4F900E000BF44
:1032A00000F0B8BC07F110031B6801331B78102B2A
:1032B00000F2538401A252F823F000BF0133010849
:1032C000153301081D33010853330108AD330108DC
:1032D0004935010895350108EF3501088D3701089A
:1032E000D337010899390108B3390108B939010800
:1032F000313A01080B3B0108113B0108173B01085B
:1033000007F110031B6802331B781846FEF741FED5
:1033100000F026BCFEF74FFE00F022BCFFF788F954
:103320000346A7F80A31012387F8DA30022387F829
:10333000DB30B7F80A31DBB287F8DC30F72387F8E7
:10334000DD3007F1D80306211846FEF76BF900F0CF
:1033500007BC07F110031B6802331B781846FFF700
:10336000DAF9034687F80D31012387F8DA300323B1
:1033700087F8DB3097F80D31002B03D0012387F855
:10338000DC3002E0002387F8DC30F72387F8DD30FB
:1033900007F1D80306211846FEF744F9E0E300BF21
:1033A0001C040208240402080000594007F110031D
:1033B0001B6802331B78002B05D107F15C0318460C
:1033C000FFF7C3F90BE007F110031B6802331B780A
:1033D000012B04D107F148031846FFF711FA012326
:1033E00087F8DA30042387F8DB3007F110031B6815
:1033F00003331B78042B7BD801A252F823F000BFC3
:1034000015340108413401086D340108993401086C
:10341000C534010807F110031B6802331B78002B29
:1034200003D1FB6DC7F8343164E007F110031B686A
:1034300002331B78012B5DD1BB6CC7F8343159E0E6
:1034400007F110031B6802331B78002B03D13B6E7E
:10345000C7F8343150E007F110031B6802331B78C2
:10346000012B49D1FB6CC7F8343145E007F110035B
:103470001B6802331B78002B03D17B6EC7F83431F5
:103480003CE007F110031B6802331B78012B35D198
:103490003B6DC7F8343131E007F110031B6802338C
:1034A0001B78002B03D1BB6EC7F8343128E007F13D
:1034B00010031B6802331B78012B21D17B6DC7F8E9
:1034C00034311DE007F110031B6802331B78002B19
:1034D00003D1FB6EC7F8343114E007F110031B6809
:1034E00002331B78012B0DD1BB6DC7F8343109E0D5
:1034F00000BF08E000BF06E000BF04E000BF02E03C
:1035000000BF00E000BFD7F834311B16DBB287F8EC
:10351000DC30D7F834311B14DBB287F8DD30D7F854
:1035200034311B12DBB287F8DE30D7F83431DBB22E
:1035300087F8DF30F72387F8E03007F1D803092157
:103540001846FEF76FF80BE307F110031B68023310
:103550001B781846FFF76EFA034687F80E310123F1
:1035600087F8DA30052387F8DB3097F80E31002B27
:1035700003D0012387F8DC3002E0002387F8DC3039
:10358000F72387F8DD3007F1D80306211846FEF748
:1035900049F8E5E207F110031B6802331B781A466D
:1035A00007F110031B6803331B7819461046FFF719
:1035B00063FA034687F80F31012387F8DA300623D0
:1035C00087F8DB3097F80F31002B03D0012387F801
:1035D000DC3002E0002387F8DC30F72387F8DD30A9
:1035E00007F1D80306211846FEF71CF8B8E207F1E8
:1035F00010031B689B7887F8123107F110031B68D2
:1036000003331B78002B08D197F8121107F1380308
:1036100001221846FFF77EFA0EE007F110031B683F
:1036200003331B78012B07D197F8121107F12803F8
:1036300001221846FFF70EFB012387F8DA30072333
:1036400087F8DB3007F110031B6804331B78032B6A
:1036500072D801A252F823F0693601089D3601089C
:10366000D13601080537010807F110031B68033341
:103670001B78002B05D107F138031B68C7F83431DC
:103680005CE007F110031B6802331B78012B55D156
:1036900007F128031B68C7F834314FE007F1100326
:1036A0001B6803331B78002B05D107F138035B68D7
:1036B000C7F8343144E007F110031B6802331B786C
:1036C000012B3DD107F128035B68C7F8343137E09F
:1036D00007F110031B6803331B78002B05D107F19A
:1036E00038035B68C7F834312CE007F110031B681E
:1036F00002331B78012B25D107F128039B68C7F8FB
:1037000034311FE007F110031B6803331B78002BD3
:1037100005D107F13803DB68C7F8343114E007F14D
:1037200010031B6802331B78012B0DD107F128030E
:10373000DB68C7F8343107E000BF06E000BF04E0F3
:1037400000BF02E000BF00E000BFD7F834311B1615
:10375000DBB287F8DC30D7F834311B14DBB287F8E2
:10376000DD30D7F834311B12DBB287F8DE30D7F802
:103770003431DBB287F8DF30F72387F8E03007F128
:10378000D80309211846FDF74DFFE9E107F11003C1
:103790001B6802331B781846FFF7A8FA0346184641
:1037A000FBF748FD034687F81031012387F8DA302C
:1037B000082387F8DB3097F8103187F8DC30F723DF
:1037C00087F8DD3007F1D80306211846FDF72AFFF8
:1037D000C6E107F110031B689B7887F8123107F1E7
:1037E00010031B6803331B78002B12D197F81211BA
:1037F00007F110031B6804331B781A4607F13804DD
:103800003B461846FFF786F93B460FCB84E80F008E
:1038100018E007F110031B6803331B78012B11D14B
:1038200097F8121107F110031B6804331B781A462E
:1038300007F128043B461846FFF70CFA3B460FCB2E
:1038400084E80F00012387F8DA30092387F8DB309A
:1038500007F110031B6805331B78032B72D801A2F4
:1038600052F823F075380108A9380108DD3801083D
:103870001139010807F110031B6803331B78002B73
:1038800005D107F138031B68C7F834315CE007F154
:1038900010031B6802331B78012B55D107F1280355
:1038A0001B68C7F834314FE007F110031B6803337E
:1038B0001B78002B05D107F138035B68C7F834315A
:1038C00044E007F110031B6802331B78012B3DD144
:1038D00007F128035B68C7F8343137E007F11003BC
:1038E0001B6803331B78002B05D107F138035B6895
:1038F000C7F834312CE007F110031B6802331B7842
:10390000012B25D107F128039B68C7F834311FE04C
:1039100007F110031B6803331B78002B05D107F157
:103920003803DB68C7F8343114E007F110031B6873
:1039300002331B78012B0DD107F12803DB68C7F890
:10394000343107E000BF06E000BF04E000BF02E042
:1039500000BF00E000BFD7F834311B16DBB287F898
:10396000DC30D7F834311B14DBB287F8DD30D7F800
:1039700034311B12DBB287F8DE30D7F83431DBB2DA
:1039800087F8DF30F72387F8E03007F1D803092103
:103990001846FDF747FEE3E007F110031B689B782C
:1039A00087F8123197F812319BB21846FFF74DFA9B
:1039B000D6E0FFF73BFAD3E007F110031B689B78D2
:1039C00087F8123107F110031B68DB7887F8113193
:1039D0000023C7F82C3113E0D7F82C31043307F15A
:1039E000100212681344197807F1A402D7F82C3199
:1039F00013440A461A70D7F82C310133C7F82C311A
:103A000097F81131D7F82C219A42E5DBD7F82C3101
:103A1000013307F59C721344002203F8942C97F8A5
:103A2000122107F1A40311461846FFF72DFA97E07B
:103A300007F110031B6802331B781A0607F1100305
:103A40001B6803331B781B041A4307F110031B6820
:103A500004331B781B02134307F11002126805326E
:103A600012781343C7F8183107F110031B680633A7
:103A70001B781A0607F110031B6807331B781B0419
:103A80001A4307F110031B6808331B781B0213430A
:103A900007F110021268093212781343C7F8143183
:103AA00007F110031B689B7A87F813310023C7F8CE
:103AB0002C3113E0D7F82C310B3307F110021268C8
:103AC0001344197807F17002D7F82C3113440A46D1
