:020000040800F2
:1000000000C00020D90900081509000821090008CE
:10001000270900082D090008330900080000000026
:100020000000000000000000000000003909000886
:100030004509000800000000510900085D0900089A
:10004000210A0008210A0008210A0008210A0008E4
:10005000210A0008210A0008210A0008210A0008D4
:10006000210A0008210A0008210A0008210A0008C4
:10007000210A0008210A0008210A0008210A0008B4
:10008000210A0008210A0008210A0008210A0008A4
:1000900069090008210A0008210A0008210A00084D
:1000A0007D09000891090008A5090008B9090008A0
:1000B000210A0008210A0008210A0008210A000874
:1000C000210A0008210A0008210A0008210A000864
:1000D000210A0008210A0008210A0008210A000854
:1000E000210A0008210A0008210A0008210A000844
:1000F000210A0008210A0008210A0008210A000834
:10010000210A0008210A0008210A0008210A000823
:10011000210A0008210A0008210A0008210A000813
:10012000210A0008210A0008210A0008210A000803
:1001300000000000000000000000000000000000BF
:1001400000000000000000000000000000000000AF
:10015000000000000000000000000000000000009F
:10016000000000000000000000000000000000008F
:10017000000000000000000000000000000000007F
:10018000000000000000000000000000000000006F
:10019000000000000000000000000000000000005F
:1001A000000000000000000000000000000000004F
:1001B000000000000000000000000000000000003F
:1001C000000000000000000000000000000000002F
:1001D000000000000000000000000000000000001F
:0401E0005FF8E0F1F3
:1001E40010B5054C237833B9044B13B10448AFF36D
:1001F40000800123237010BD800100200000000056
:10020400D881000808B5034B1BB103490348AFF379
:10021400008008BD0000000084010020D88100088F
:1002240080B584B000AF0023FB6014E001220121FB
:10023400244801F0F1F84FF47A7000F053FC0022E6
:100244000121204801F0E8F84FF47A7000F04AFCEC
:10025400FB680133FB60FB68012BE7DD0023BB6017
:1002640010E0194ABB6820334FF0FF3142F82310E5
:10027400154ABB6860334FF0FF3142F82310BB6866
:100284000133BB60BB68072BEBDD104B1A68104BC6
:100294001340B3F1005F11D10E4B1B680E4A13607B
:1002A4000D4B1B681A460D4B1A60084B1B687B608C
:1002B4007B6883F30888094B1B68984700BF103795
:1002C400BD4680BD000C014000E100E000E00008F4
:1002D4000000FE2F04E0000854040020C4030020A2
:1002E40080B588B000AF0346FB7100F09BFD00238E
:1002F4003B610A4B1B68BB61FB79FB610023FB601C
:1003040007F10C0207F110031146184600F072FEC3
:1003140000F0AEFD00BF2037BD4680BD00000020C8
:1003240090B583B000AF00F07DFD00237B6014E046
:100334000F4B19680F4A7B6852F823304FF00004C2
:100344001A462346022000F0FDFC094B1B680433C7
:10035400074A13607B6801337B60074B1B687A682C
:100364009A42E5DB00F084FD00BF0C37BD4690BD2A
:1003740000000020500700204807002080B500AF8F
:10038400144B1B78012B0BD1134B00221A70134B07
:100394001B68DBB21846FFF7A3FF0E4B00221A704E
:1003A4000F4B1B78012B13D10B4B00221A700D48F5
:1003B40003F050F90C4B1B683F2B04D8FFF7B0FF38
:1003C400FFF72EFF01E0FFF7ABFF054B00221A7089
:1003D40000BF80BD580F0020A0010020440700206A
:1003E4004C0700200C040020500F002080B582B080
:1003F40000AF78607B681B68094A93420CD1094BB3
:100404001B78002B02D0084803F024F9054B1B7815
:100414000133DAB2034B1A7000BF0837BD4680BD02
:10042400002C0140A00100200C04002080B500AF86
:1004340000F0F6FA00F026F800224FF400610E48AE
:1004440000F0EAFF00F0F8F800F0CCF807F060F9EB
:1004540000F076F801224FF40061074800F0DCFF59
:10046400064803F097F8064B1B78012B01D9FFF7D8
:10047400D7FEFFF783FFF6E7001001400C040020CD
:10048400A001002080B596B000AF07F13003282208
:100494000021184607F096FE07F11C0300221A609B
:1004A4005A609A60DA601A613B1D00221A605A6031
:1004B4009A60DA601A615A6101233B634FF4803316
:1004C4007B630023BB6301233B640223FB644FF47F
:1004D40080333B654FF480137B6507F13003184686
:1004E40002F036FB0346002B01D000F04FF90F2336
:1004F400FB6102233B6200237B624FF48063BB6297
:100504000023FB6207F11C030121184602F0A0FD41
:100514000346002B01D000F039F910237B604FF41F
:100524008003BB613B1D184602F02EFF0346002BDF
:1005340001D000F02BF900BF5837BD4680BD000044
:1005440080B586B000AF07F1080300221A605A6034
:100554009A60DA603B4600221A605A601F4B204AB8
:100564001A601E4B41F2BF225A601C4B00229A6053
:100574001A4B4CF24F32DA60184B00221A61174BB7
:1005840000225A61154B00229A61144802F0B2FF0E
:100594000346002B01D000F0F9F84FF48053BB6000
:1005A40007F1080319460D4803F08AF90346002BA6
:1005B40001D000F0EBF800233B6000237B603B4656
:1005C4001946064803F068FB0346002B01D000F0EF
:1005D400DDF800BF1837BD4680BD00BF0C04002005
:1005E400002C014080B500AF114B124A1A60104B29
:1005F4004FF4E1325A600E4B00229A600C4B0022F9
:10060400DA600B4B00221A61094B0C225A61084B29
:1006140000229A61064B0022DA61054803F0BAFB16
:100624000346002B01D000F0B1F800BF80BD00BF2D
:10063400C80300200038014080B588B000AF07F13E
:10064400100300221A605A609A60DA604A4B9B6970
:10065400494A43F020039361474B9B6903F020030D
:10066400FB60FB68444B9B69434A43F0040393617A
:10067400414B9B6903F00403BB60BB683E4B9B6921
:100684003D4A43F0080393613B4B9B6903F0080325
:100694007B607B68384B9B69374A43F01003936156
:1006A400354B9B6903F010033B603B6800228021BB
:1006B400324800F0B1FE00220121314800F0ACFEC6
:1006C40000224FF400612F4800F0A6FE80233B6116
:1006D40001237B610023BB610223FB6107F110034B
:1006E4001946264800F02EFD01233B6101237B615E
:1006F4000023BB610223FB6107F110031946204864
:1007040000F020FD4FF400433B6100237B61002394
:10071400BB6107F110031946184800F013FD4FF4AC
:10072400A0533B6100237B610023BB6107F11003ED
:100734001946144800F006FD4FF400633B610123A1
:100744007B610023BB610223FB6107F1100319469F
:100754000C4800F0F7FC04233B6100237B61002379
:10076400BB6107F110031946074800F0EBFC00BF1A
:100774002037BD4680BD00BF001002400008014084
:10078400000C0140001001400014014080B400AF8F
:1007940000BFBD4680BC704780B485B000AF154B28
:1007A4009B69144A43F001039361124B9B6903F064
:1007B4000103BB60BB680F4BDB690E4A43F08053F7
:1007C400D3610C4BDB6903F080537B607B680A4B7D
:1007D4005B68FB60FB6823F0E063FB60FB6843F04D
:1007E4000073FB60044AFB68536000BF1437BD46C6
:1007F40080BC7047001002400000014080B584B006
:1008040000AF78607B681B68194A93422BD1194B5F
:100814009B69184A43F400639361164B9B6903F484
:100824000063FB60FB6800220021182000F053FAEB
:10083400182000F06CFA00220021192000F04BFA75
:10084400192000F064FA002200211A2000F043FA73
:100854001A2000F05CFA002200211B2000F03BFA71
:100864001B2000F054FA00BF1037BD4680BD00BF06
:10087400002C01400010024080B588B000AF7860C1
:1008840007F1100300221A605A609A60DA607B68EC
:100894001B681C4A934231D11B4B9B691A4A43F48F
:1008A40080439361184B9B6903F48043FB60FB68AE
:1008B400154B9B69144A43F004039361124B9B69E3
:1008C40003F00403BB60BB684FF400733B61022375
:1008D4007B610323FB6107F1100319460B4800F009
:1008E40031FC4FF480633B6100237B610023BB61D7
:1008F40007F110031946054800F024FC00BF203717
:10090400BD4680BD0038014000100240000801408F
:1009140080B400AF00BFBD4680BC704780B400AF58
:10092400FEE780B400AFFEE780B400AFFEE780B41A
:1009340000AFFEE780B400AF00BFBD4680BC704787
:1009440080B400AF00BFBD4680BC704780B400AF28
:1009540000BFBD4680BC704780B500AF00F0A6F86C
:1009640000BF80BD80B500AF024800F09EFE00BF0E
:1009740080BD00BF6C19002080B500AF024802F0B2
:1009840097FE00BF80BD00BF0C04002080B500AFFF
:10099400024802F08DFE00BF80BD00BF0C040020A1
:1009A40080B500AF024802F083FE00BF80BD00BFE7
:1009B4000C04002080B500AF024802F079FE00BFAD
:1009C40080BD00BF0C04002080B400AF00BFBD4652
:1009D40080BC7047002103E00B4B5B58435004314B
:1009E4000A480B4B42189A42F6D30A4A02E0002303
:1009F40042F8043B084B9A42F9D3FFF7E5FF07F0AE
:100A0400BDFBFFF713FD70476C8200080000002057
:100A14008001002080010020581C0020FEE7000017
:100A240080B500AF084B1B68074A43F010031360FE
:100A3400032000F045F9002000F008F8FFF7ACFEB1
:100A44000023184680BD00BF0020024080B582B05C
:100A540000AF7860124B1A68124B1B7819464FF49A
:100A64007A73B3FBF1F3B2FBF3F3184600F05DF9CC
:100A74000346002B01D001230EE07B680F2B0AD81C
:100A8400002279684FF0FF3000F025F9064A7B68B0
:100A94001360002300E0012318460837BD4680BDDB
:100AA400040000200C0000200800002080B400AFE7
:100AB400054B1B781A46054B1B681344034A136005
:100AC40000BFBD4680BC70470C00002058040020C5
:100AD40080B400AF024B1B681846BD4680BC70470B
:100AE4005804002080B584B000AF7860FFF7F0FFB1
:100AF400B8607B68FB60FB68B3F1FF3F05D0094B2E
:100B04001B781A46FB681344FB6000BFFFF7E0FF45
:100B14000246BB68D31AFA689A42F7D800BF103766
:100B2400BD4680BD0C00002080B485B000AF786065
:100B34007B6803F00703FB600C4BDB68BB60BA689F
:100B44004FF6FF031340BB60FB681A02BB681343F4
:100B540043F0BF6343F40033BB60044ABB68D36013
:100B640000BF1437BD4680BC704700BF00ED00E0F5
:100B740080B400AF044BDB681B0A03F0070318467C
:100B8400BD4680BC704700BF00ED00E080B483B078
:100B940000AF0346FB7197F90730002B0BDBFB79A1
:100BA40003F01F02064997F907305B09012000FA98
:100BB40002F241F8232000BF0C37BD4680BC7047C9
:100BC40000E100E080B483B000AF03463960FB71FC
:100BD40097F90730002B0ADB3B68DAB20C4997F926
:100BE40007301201D2B20B4483F800230AE03B68B9
:100BF400DAB20849FB7903F00F03043B1201D2B2C5
:100C04000B441A7600BF0C37BD4680BC704700BF4A
:100C140000E100E000ED00E080B489B000AFF860CE
:100C2400B9607A60FB6803F00703FB61FB69C3F1F9
:100C34000703042B28BF0423BB61FB690433062B81
:100C440002D9FB69033B00E000237B614FF0FF32D4
:100C5400BB6902FA03F3DA43BB681A407B699A4022
:100C64004FF0FF317B6901FA03F3D9437B680B40F2
:100C7400134318462437BD4680BC704780B582B004
:100C840000AF78607B68013BB3F1807F01D301231F
:100C94000FE00A4A7B68013B53600F214FF0FF309D
:100CA400FFF790FF054B00229A60044B07221A605D
:100CB400002318460837BD4680BD00BF10E000E0A1
:100CC40080B582B000AF78607868FFF72DFF00BF71
:100CD4000837BD4680BD80B586B000AF0346B96015
:100CE4007A60FB7300237B61FFF742FF78617A68C7
:100CF400B9687869FFF790FF024697F90F301146FB
:100D04001846FFF75FFF00BF1837BD4680BD80B5AA
:100D140082B000AF0346FB7197F907301846FFF71E
:100D240035FF00BF0837BD4680BD80B582B000AF37
:100D340078607868FFF7A2FF034618460837BD4677
:100D440080BD0000F0B587B000AFF860B960C7E9B6
:100D540000230123FB750023BB7500237B752F4BF8
:100D64001B7E012B01D1022354E02C4B01221A7665
:100D74004CF2503000F0A8F80346FB75FB7D002BC5
:100D840044D1FB68012B02D101237B7507E0FB688A
:100D9400022B02D102237B7501E004237B7500231F
:100DA400BB752DE0BB7D5A00BB6802EB030CBB7D19
:100DB4001901D7E90023C1F12006A1F1200022FA8C
:100DC40001F403FA06F6344323FA00F0044323FA49
:100DD40001F5A3B21946604600F05AF84CF25030BF
:100DE40000F072F80346FB750D4B1B690C4A23F0A7
:100DF40001031361FB7D002B07D1BB7D0133BB7560
:100E0400BA7D7B7D9A42CDD300E000BF034B002224
:100E14001A76FB7D18461C37BD46F0BD60040020E1
:100E24000020024080B483B000AF0023FB710D4B5F
:100E34001B6903F08003002B0DD00A4B0A4A5A6049
:100E4400084B0A4A5A60074B1B6903F08003002BC6
:100E540001D00123FB71FB7918460C37BD4680BCD9
:100E6400704700BF0020024023016745AB89EFCDE6
:100E740080B400AF054B1B69044A43F0800313613F
:100E840000231846BD4680BC704700BF00200240C6
:100E940080B483B000AF78600B467B80084B00229F
:100EA400DA61084B1B69074A43F0010313617B684D
:100EB4007A881A8000BF0C37BD4680BC704700BFDB
:100EC400600400200020024080B584B000AF786048
:100ED400FFF7FEFDF86010E07B68B3F1FF3F0CD034
:100EE4007B68002B07D0FFF7F3FD0246FB68D31A9B
:100EF4007A689A4201D2032325E0154BDB6803F09C
:100F04000103002BE8D1124BDB6803F02003002B14
:100F140002D00F4B2022DA600D4BDB6803F0100384
:100F2400002B0BD10A4BDB6903F00103002B05D125
:100F3400074BDB6803F00403002B03D000F00AF82E
:100F4400012300E0002318461037BD4680BD00BFD2
:100F54000020024080B483B000AF00237B60234BA9
:100F6400DB6803F01003002B09D0214BDB6943F04D
:100F740002031F4AD3617B6843F010037B601B4B61
:100F8400DB6803F00403002B09D0194BDB6943F041
:100F94000103174AD3617B6843F004037B60134B5E
:100FA400DB6903F00103002B0BD0114BDB6943F029
:100FB40004030F4AD3610D4BDB690C4A23F0010390
:100FC400D3617B6840F20112934206D1074BDB697F
:100FD400064A23F00103D36102E0044A7B68D3602C
:100FE40000BF0C37BD4680BC704700BF00200240E4
:100FF4006004002080B584B000AF786039600123BC
:10100400FB730023BB602F4B1B7E012B01D10223FA
:1010140053E02C4B01221A767B681B68022B16D1F5
:101024004CF25030FFF750FF0346002B41D1012012
:1010340000F04CF84CF25030FFF746FF0346FB73C8
:10104400214B1B69204A23F00403136131E04CF265
:101054005030FFF739FF0346002B2AD13B684FF08D
:10106400FF321A607B689B68BB6019E0B86800F0C7
:1010740049F84CF25030FFF727FF0346FB73124B3D
:101084001B69114A23F002031361FB7B002B03D07D
:101094003B68BA681A600CE0BB6803F50063BB6088
:1010A4007B68DB68DA027B689B681344BA689A42FF
:1010B400DCD3044B00221A76FB7B18461037BD465E
:1010C40080BD00BF600400200020024080B483B0D3
:1010D40000AF7860094B0022DA61094B1B69084AAA
:1010E40043F004031361064B1B69054A43F04003B4
:1010F400136100BF0C37BD4680BC704760040020FC
:101104000020024080B483B000AF78600B4B002213
:10111400DA610B4B1B690A4A43F002031361084A64
:101124007B685361064B1B69054A43F04003136116
:1011340000BF0C37BD4680BC704700BF6004002070
:101144000020024080B48BB000AF78603960002387
:101154007B6200233B6233E101227B6A02FA03F3E0
:10116400FB613B681B68FA691340BB61BA69FB69A0
:101174009A4240F022813B685B68122B34D0122BD8
:101184000DD8022B2BD0022B04D8002B31D0012BED
:101194001CD048E0032B43D0112B1BD043E08F4AD3
:1011A400934226D08D4A934206D88D4A934220D04A
:1011B4008C4A93421DD036E08B4A934219D08B4A15
:1011C400934216D08A4A934213D02CE03B68DB68E2
:1011D4003B6228E03B68DB6804333B6223E03B6806
:1011E400DB6808333B621EE03B68DB680C333B6220
:1011F40019E03B689B68002B02D104233B6212E098
:101204003B689B68012B05D108233B627B68FA6924
:101214001A6108E008233B627B68FA695A6102E0BC
:1012240000233B6200BFBB69FF2B01D87B6801E050
:101234007B6804337B61BB69FF2B02D87B6A9B000C
:1012440002E07B6A083B9B003B617B691A680F21C3
:101254003B6901FA03F3DB431A40396A3B6901FA3B
:1012640003F31A437B691A603B685B6803F080539D
:10127400002B00F0A2805F4B9B695E4A43F00103A0
:1012840093615C4B9B6903F00103BB60BB685A4AE2
:101294007B6A9B08023352F82330FB607B6A03F0BD
:1012A40003039B000F2202FA03F3DB43FA681340A3
:1012B400FB607B68514A93421FD07B68504A93423B
:1012C40019D07B684F4A934213D07B684E4A9342AD
:1012D4000DD07B684D4A934207D07B684C4A9342B9
:1012E40001D105230AE0062308E0042306E00323D2
:1012F40004E0022302E0012300E000237A6A02F002
:10130400030292009340FA681343FB603A497B6AF4
:101314009B080233FA6841F823203B685B6803F4B6
:101324008033002B06D03B4B1A683A49BB69134300
:101334000B6006E0374B1A68BB69DB433549134041
:101344000B603B685B6803F40033002B06D0314B21
:101354005A683049BB6913434B6006E02D4B5A6809
:10136400BB69DB432B4913404B603B685B6803F468
:101374008013002B06D0274B9A682649BB69134378
:101384008B6006E0234B9A68BB69DB432149134019
:101394008B603B685B6803F40013002B06D01D4B85
:1013A400DA681C49BB691343CB6006E0194BDA6861
:1013B400BB69DB4317491340CB607B6A01337B6213
:1013C4003B681A687B6A22FA03F3002B7FF4C4AEED
:1013D40000BF2C37BD4680BC704700BF0000211001
:1013E4000000111000001210000031100000321033
:1013F40000002210001002400000014000080140DB
:10140400000C01400010014000140140001801408C
:10141400001C01400004014080B483B000AF786038
:101424000B467B8013467B707B78002B03D07A8835
:101434007B681A6103E07B881A047B681A6100BF29
:101444000C37BD4680BC7047F0B58BB006AF7860F2
:101454007B68002B01D10123FDE07B6893F8A9325E
:10146400DBB2002B06D17B68002283F8A8227868BF
:1014740006F0DAFB7B68032283F8A9227B681B68E9
:10148400184602F089FD7B681B683B607E686D46E8
:1014940006F110040FCC0FC523682B60331D0ECB4F
:1014A400386802F053FD0346002B05D07B68022206
:1014B40083F8A9220123CEE07B681B68002118462B
:1014C40002F084FD0023FB734CE0FB7B79685A1C1B
:1014D40013469B001344DB000B44013301221A70B2
:1014E400FB7B79685A1C13469B001344DB000B44B6
:1014F400FA7B1A70FA7BFB7B98B2796813469B00DF
:101504001344DB000B44363302461A80FB7B7968B4
:101514005A1C13469B001344DB000B440333002284
:101524001A70FA7B796813469B001344DB000B4462
:10153400383300221A60FA7B796813469B001344FF
:10154400DB000B443C3300221A60FA7B79681346B3
:101554009B001344DB000B44403300221A60FB7BE6
:101564000133FB73FA7B7B685B689A42ADD300233B
:10157400FB7344E0FA7B796813469B001344DB0059
:101584000B4403F2691300221A70FA7B796813463C
:101594009B001344DB000B4403F5B473FA7B1A700D
:1015A400FA7B796813469B001344DB000B4403F277
:1015B4006B1300221A70FA7B796813469B0013445C
:1015C400DB000B4403F5BC7300221A60FA7B7968D4
:1015D40013469B001344DB000B4403F5BE73002247
:1015E4001A60FA7B796813469B001344DB000B44B2
:1015F40003F5C07300221A60FB7B0133FB73FA7B93
:101604007B685B689A42B5D37B681B683B607E68E5
:101614006D4606F110040FCC0FC523682B60331DF3
:101624000ECB386802F0DEFC0346002B05D07B6845
:10163400022283F8A92201230DE07B68002283F8AB
:1016440024207B68012283F8A9227B681B68184642
:1016540004F078FC002318461437BD46F0BD80B56D
:1016640082B000AF78607B6893F8A832012B01D177
:10167400022316E07B68012283F8A8227B681B689A
:10168400184602F073FC0121786806F040FD7B687F
:101694001B68184604F04CFC7B68002283F8A822DF
:1016A400002318460837BD4680BD80B588B000AF1A
:1016B40078607B681B68184604F04EFC034603F40C
:1016C4000043B3F5004F02D1786800F061FB7B68FA
:1016D4001B68184604F040FC034603F48063B3F52A
:1016E400806F12D17B681B68B3F844309AB27B6870
:1016F4001B6822F4806292B2A3F84420786806F052
:101704000EFB0021786800F025F97B681B681846F9
:1017140004F022FC034603F48043B3F5804F0BD15D
:101724007B681B68B3F844309AB27B681B6822F468
:10173400804292B2A3F844207B681B68184604F0E8
:101744000BFC034603F40053B3F5005F0BD17B6835
:101754001B68B3F844309AB27B681B6822F40052C9
:1017640092B2A3F844207B681B68184604F0F4FB8B
:10177400034603F48053B3F5805F26D17B681B686E
:10178400B3F840309AB27B681B6822F0040292B22C
:10179400A3F840207B681B68B3F840309AB27B689A
:1017A4001B6822F0080292B2A3F84020786806F081
:1017B400EFFA7B681B68B3F844309AB27B681B6805
:1017C40022F4805292B2A3F844207B681B68184626
:1017D40004F0C2FB034603F40063B3F5006F40F06A
:1017E40084800023FB7711E07B681B681A46FB7F2B
:1017F4009B001A44FB7F128892B25B0007F1200120
:101804000B4423F8142CFB7F0133FB77FB7F072B5E
:10181400EAD97B681B68B3F840309AB27B681B68CE
:1018240042F0010292B2A3F840207B681B68B3F82F
:1018340040309AB27B681B6822F0010292B2A3F88E
:10184400402000BF7B681B68B3F844309BB203F4AC
:101854008063002BF6D07B681B68B3F844309AB2DF
:101864007B681B6822F4806292B2A3F844200023B0
:10187400FB7710E0FB7F7A6812681146FA7F9200CA
:101884000A445B0007F120010B4433F8143C138035
:10189400FB7F0133FB77FB7F072BEBD97B681B684E
:1018A400B3F840309AB27B681B6842F0080292B2E7
:1018B400A3F840207B681B68B3F844309AB27B6875
:1018C4001B6822F4006292B2A3F844207B681B6870
:1018D400B3F840309AB27B681B6842F0040292B2BB
:1018E400A3F84020786806F039FA7B681B6818462C
:1018F40004F032FB034603F40073B3F5007F0ED10A
:101904007B681B68B3F844309AB27B681B6822F486
:10191400007292B2A3F84420786806F0F2F97B686A
:101924001B68184604F018FB034603F48073B3F5F0
:10193400807F0BD17B681B68B3F844309AB27B6814
:101944001B6822F4807292B2A3F8442000BF2037AF
:10195400BD4680BD80B582B000AF78600B46FB7099
:101964007B6893F8A832012B01D1022313E07B6832
:10197400012283F8A8227B68FA7883F824207B6804
:101984001B68FA781146184604F0BFFA7B680022F7
:1019940083F8A822002318460837BD4680BD80B5C9
:1019A40084B000AF7860084611461A460346FB70BF
:1019B4000B463B801346BB700023FB7297F9033040
:1019C400002B0EDAFB7803F007035A1C13469B0026
:1019D4001344DB007A681344FB60FB6801225A70ED
:1019E4000EE0FB7803F0070213469B001344DB0070
:1019F40003F5B4737A681344FB60FB6800225A70E1
:101A0400FB7803F00703DAB2FB681A703A88FB68C4
:101A14001A61FB68BA78DA70FB685B78002B04D033
:101A2400FB681B789AB2FB68DA81BB78022B02D17F
:101A3400FB6800221A717B6893F8A832012B01D14C
:101A440002230EE07B68012283F8A8227B681B68CE
:101A5400F968184602F0E6FA7B68002283F8A822A7
:101A6400FB7A18461037BD4680BD80B584B000AF00
:101A740078600B46FB7097F90330002B0EDAFB7885
:101A840003F007035A1C13469B001344DB007A68D7
:101A94001344FB60FB6801225A700EE0FB7803F0EC
:101AA400070213469B001344DB0003F5B4737A6802
:101AB4001344FB60FB6800225A70FB7803F00703B1
:101AC400DAB2FB681A707B6893F8A832012B01D153
:101AD40002230EE07B68012283F8A8227B681B683E
:101AE400F968184602F008FE7B68002283F8A822F1
:101AF400002318461037BD4680BD80B586B000AFC0
:101B0400F8607A603B600B46FB72FB7A03F00702D5
:101B140013469B001344DB0003F5B473FA681344C3
:101B24007B617B697A685A617B693A689A617B69EF
:101B34000022DA617B6900225A70FB7A03F0070302
:101B4400DAB27B691A70FB7A03F00703002B06D123
:101B5400FB681B687969184602F0BAFF05E0FB6868
:101B64001B687969184602F0B3FF0023184618373A
:101B7400BD4680BD80B483B000AF78600B46FB7077
:101B8400FB7803F00702796813469B001344DB00DB
:101B94000B4403F5C2731B6818460C37BD4680BC62
:101BA400704780B586B000AFF8607A603B600B4642
:101BB400FB72FB7A03F007035A1C13469B00134481
:101BC400DB00FA6813447B617B697A685A617B693C
:101BD4003A689A617B69012283F824207B693A6818
:101BE4001A627B690022DA617B6901225A70FB7AEE
:101BF40003F00703DAB27B691A70FB7A03F0070378
:101C0400002B06D1FB681B687969184602F060FF57
:101C140005E0FB681B687969184602F059FF002348
:101C240018461837BD4680BD80B584B000AF7860D3
:101C34000B46FB70FB7803F007027B685B689A42F3
:101C440001D901234CE097F90330002B0EDAFB781D
:101C540003F007035A1C13469B001344DB007A6805
:101C64001344FB60FB6801225A700CE0FA781346B7
:101C74009B001344DB0003F5B4737A681344FB60E0
:101C8400FB6800225A70FB6801229A70FB7803F00B
:101C94000703DAB2FB681A707B6893F8A832012B49
:101CA40001D102231CE07B68012283F8A8227B680F
:101CB4001B68F968184604F02BF8FB7803F0070357
:101CC400002B08D17B681A687B6803F52C731946CE
:101CD400104604F050F97B68002283F8A822002300
:101CE40018461037BD4680BD80B584B000AF78601B
:101CF4000B46FB70FB7803F00F027B685B689A422B
:101D040001D9012340E097F90330002B0EDAFB7868
:101D140003F007035A1C13469B001344DB007A6844
:101D24001344FB60FB6801225A700EE0FB7803F059
:101D3400070213469B001344DB0003F5B4737A686F
:101D44001344FB60FB6800225A70FB6800229A70FF
:101D5400FB7803F00703DAB2FB681A707B6893F828
:101D6400A832012B01D102230EE07B68012283F803
:101D7400A8227B681B68F968184604F019F87B6888
:101D8400002283F8A822002318461037BD4680BDE0
:101D940080B58EB000AF7860DFE27B681B68B3F873
:101DA4004430FB85FB8DDBB203F00F0387F82D3045
:101DB40097F82D30002B40F05881FB8D03F0100371
:101DC400002B52D17B681B681B889BB223F4E14330
:101DD40023F07003FB817B681A68FB896FEA434335
:101DE4006FEA53439BB213807B6828337B627B6822
:101DF4001B68B3F850309BB21A467B6A1B78DB0031
:101E0400134402335B007A681268134403F5806359
:101E14001B88C3F309027B6ADA617B6A5A697B6AAD
:101E2400DB691A447B6A5A610021786805F04FFF28
:101E34007B6893F82430DBB2002B00F08E827B6A3F
:101E44009B69002B40F089827B6893F82430DBB2D5
:101E540063F07F03DAB27B681B6892B2A3F84C206C
:101E64007B68002283F8242077E27B6803F5B4734F
:101E74007B627B681B681B887B857B8D03F4006316
:101E8400002B34D07B681B68B3F850309BB21A46E1
:101E94007B6A1B78DB00134406335B007A681268A4
:101EA400134403F580631B88C3F309027B6ADA6178
:101EB4007B6818687B6803F52C717B6ADA887B6A17
:101EC400DB699BB204F0A6F87B681B681B889AB296
:101ED40040F68F7313403B827B681B683A8A42F05A
:101EE400800292B21A80786805F0C4FE35E2B7F930
:101EF4002A30002B80F231827B681B681B889AB2DF
:101F040040F68F731340BB837B681B68BA8B42F027
:101F1400800292B21A807B681B68B3F850309BB27F
:101F24001A467B6A1B78DB00134406335B007A682D
:101F34001268134403F580631B88C3F309027B6AA8
:101F4400DA617B6ADB69002B19D07B6A5B69002B41
:101F540015D07B6818687B6A59697B6ADA887B6A62
:101F6400DB699BB204F056F87B6A5A697B6ADB69C9
:101F74001A447B6A5A610021786805F08DFE7B68FB
:101F84001B68BB617B681B68B3F850309BB21A4670
:101F9400BB691344BB61BB6903F20C437B617B6A7D
:101FA4001B69002B12D17B691B889BB223F4F84375
:101FB4009AB27B691A807B691B889BB26FEA4343A0
:101FC4006FEA53439AB27B691A802FE07B6A1B69DC
:101FD4003E2B13D87B6A1B695B083B637B6A1B69D6
:101FE40003F00103002B02D03B6B01333B633B6BDB
:101FF4009BB29B029AB27B691A8017E07B6A1B69C9
:102004005B093B637B6A1B6903F01F03002B02D14E
:102014003B6B013B3B633B6B9BB29B029BB26FEA06
:1020240043436FEA53439AB27B691A807B681B6807
:102034001B889BB223F4804323F070037B827B8A4A
:1020440083F480537B827B8A83F400537B827B6896
:102054001A687B8A43F07F4343F47F0343F40043CD
:1020640043F080039BB2138077E17B681B681A46B8
:1020740097F82D309B0013441B887B85B7F92A30D1
:10208400002B80F2EA807B681B681A4697F82D3093
:102094009B0013441B889AB240F68F7313403B8510
:1020A4007B681B681A4697F82D309B0013443A8DC1
:1020B40042F0800292B21A8097F82D2013469B00BA
:1020C4001344DB0003F5B4737A6813447B627B6AC0
:1020D4001B7B002B22D17B681B68B3F850309BB26A
:1020E4001A467B6A1B78DB00134406335B007A686C
:1020F4001268134403F580631B88C3F30903FB864A
:10210400FB8E002B00F087807B6818687B6A596916
:102114007B6ADA88FB8E03F07DFF7CE07B6ADB78E8
:10212400022B08D17B8D1A46796A786800F023F96E
:102134000346FB866FE07B681B681A467B6A1B7844
:102144009B0013441B889BB223F4E04323F07003E9
:102154007B847B681B681A467B6A1B789B001A4445
:102164007B8C43F07F4343F47F0343F4004343F009
:10217400C0039BB213807B681B681A467B6A1B787A
:102184009B0013441B889BB203F48043002B21D093
:102194007B681B68B3F850309BB21A467B6A1B7885
:1021A400DB00134402335B007A681268134403F5BE
:1021B40080631B88C3F30903FB86FB8E002B2AD0A4
:1021C4007B6818687B6A59697B6A1A89FB8E03F0FD
:1021D40021FF20E07B681B68B3F850309BB21A469D
:1021E4007B6A1B78DB00134406335B007A68126851
:1021F400134403F580631B88C3F30903FB86FB8E3A
:10220400002B08D07B6818687B6A59697B6A5A89F5
:10221400FB8E03F0FFFE7B6ADA69FB8E1A447B6A4D
:10222400DA617B6A5A69FB8E1A447B6A5A617B6A5B
:102234009B69002B04D0FA8E7B6A1B699A4206D2F2
:102244007B6A1B781946786805F026FD05E07B68F3
:102254001B68796A184602F03BFC7B8D03F080030F
:10226400002B7AD097F82D305A1C13469B00134448
:10227400DB007A6813447B627B681B681A4697F814
:102284002D309B0013441B889BB223F4E14323F0BD
:1022940070033B847B681B681A4697F82D309B00BB
:1022A4001A443B8C6FEA43436FEA53439BB2138057
:1022B4007B6ADB78022B08D17B6ADB78022B46D160
:1022C4007B8D03F48073002B41D17B681B68B3F8CA
:1022D40050309BB21A467B6A1B78DB0013440233EE
:1022E4005B007A681268134403F580631B88C3F3A8
:1022F4000903FB837B6A9A69FB8B9A4206D97B6A42
:102304009A69FB8BD21A7B6A9A6102E07B6A00228B
:102314009A617B6A9B69002B06D17B6A1B781946FC
:10232400786805F0D4FC18E07B6A5A69FB8B1A4480
:102334007B6A5A617B6ADA69FB8B1A447B6ADA61CD
:102344007B681B68796A184602F0C2FB05E07B8D46
:102354001A46796A786800F01BF97B681B68B3F841
:1023640044309BB21BB2002BFFF617AD0023184676
:102374003837BD4680BD80B588B000AFF860B9601D
:102384001346FB80FB8803F48043002B7ED0FB685C
:102394001B68B3F850309BB21A46BB681B78DB004D
:1023A400134402335B00FA681268134403F5806334
:1023B4001B88C3F309037B83BB689A697B8B9A42AE
:1023C40006D3BB689A697B8BD21ABB689A6102E018
:1023D400BB6800229A61BB689B69002B23D1FB6810
:1023E4001B681A46BB681B789B0013441B889BB26E
:1023F40023F4804323F070033B833B8B83F400532B
:102404003B83FB681B681A46BB681B789B001A4415
:102414003B8B43F07F4343F47F0343F4004343F097
:1024240080039BB21380FB8803F04003002B1FD072
:10243400FB681B681A46BB681B789B0013441B8807
:102444009BB223F4E04323F07003FB82FB681B6818
:102454001A46BB681B789B001A44FB8A43F07F43EF
:1024640043F47F0343F4004343F0C0039BB213805F
:102474007B8B002B00F08780FB681868BB68596968
:10248400BB681A897B8B03F0C5FD7CE0FB681B6885
:10249400B3F850309BB21A46BB681B78DB00134478
:1024A40006335B00FA681268134403F580631B88E3
:1024B400C3F309037B83BB689A697B8B9A4206D377
:1024C400BB689A697B8BD21ABB689A6102E0BB68CD
:1024D40000229A61BB689B69002B23D1FB681B68AF
:1024E4001A46BB681B789B0013441B889BB223F4D9
:1024F400804323F07003FB83FB8B83F40053FB8343
:10250400FB681B681A46BB681B789B001A44FB8B4C
:1025140043F07F4343F47F0343F4004343F08003D9
:102524009BB21380FB8803F04003002B1FD1FB6890
:102534001B681A46BB681B789B0013441B889BB21C
:1025440023F4E04323F07003BB83FB681B681A4643
:10255400BB681B789B001A44BB8B43F07F4343F456
:102564007F0343F4004343F0C0039BB213807B8B8F
:10257400002B08D0FB681868BB685969BB685A8986
:102584007B8B03F047FD7B8B18462037BD4680BD0F
:1025940080B592B000AFF860B9601346FB80FB8849
:1025A40003F04003002B00F03281FB681B68B3F892
:1025B40050309BB21A46BB681B78DB0013440233CD
:1025C4005B00FA681268134403F580631B88C3F345
:1025D4000903FB85BB689A69FB8D9A4206D9BB68DF
:1025E4009A69FB8DD21ABB689A6102E0BB6800222B
:1025F4009A61BB689B69002B2CD1BB681B78194678
:10260400F86805F064FBFB8803F48043002B00F0BA
:102614002F82FB681B681A46BB681B789B00134417
:102624001B889BB223F4E04323F070037B82FB6896
:102634001B681A46BB681B789B001A447B8A43F0CC
:102644007F4343F47F0343F4404343F080039BB24E
:1026540013800DE2FB8803F48043002B1FD0FB683A
:102664001B681A46BB681B789B0013441B889BB2EB
:1026740023F4E04323F07003BB84FB681B681A4611
:10268400BB681B789B001A44BB8C43F07F4343F424
:102694007F0343F4404343F080039BB21380BB6841
:1026A40093F82430012B40F0E381BB685A69FB8D19
:1026B4001A44BB685A61BB68DA69FB8D1A44BB686B
:1026C400DA61BB681A6ABB681B699A4209D3BB68A2
:1026D4001B69BB63BB681A6ABB6BD21ABB681A62FC
:1026E40014E0BB681B6A002B06D1FB8DBB63BB687F
:1026F400002283F8242009E0BB68002283F8242008
:10270400BB681B6ABB63BB6800221A62BB685B7848
:10271400002B55D1FB681B68BB61FB681B68B3F8D1
:1027240050309BB21A46BB691344BB61BB681B782B
:102734001A01BB69134403F204437B61BB6B002B96
:1027440012D17B691B889BB223F4F8439AB27B694C
:102754001A807B691B889BB26FEA43436FEA534339
:102764009AB27B691A8047E0BB6B3E2B11D8BB6BD6
:102774005B08BB62BB6B03F00103002B02D0BB6A96
:102784000133BB62BB6A9BB29B029AB27B691A801B
:1027940032E0BB6B5B09BB62BB6B03F01F03002B16
:1027A40002D1BB6A013BBB62BB6A9BB29B029BB278
:1027B4006FEA43436FEA53439AB27B691A801BE082
:1027C400BB685B78012B17D1FB681B683B62FB6815
:1027D4001B68B3F850309BB21A463B6A13443B6201
:1027E400BB681B781A013B6A134403F20443FB6180
:1027F400BB6B9AB2FB691A80FB681868BB6859699D
:10280400BB681A89BB6B9BB203F0C0FB30E1FB6869
:102814001B68B3F850309BB21A46BB681B78DB00C8
:10282400134406335B00FA681268134403F58063AB
:102834001B88C3F30903FB85BB689A69FB8D9A4225
:1028440006D3BB689A69FB8DD21ABB689A6102E011
:10285400BB6800229A61BB689B69002B2CD1BB68C2
:102864001B781946F86805F032FAFB8803F48043B4
:10287400002B40F0FD80FB681B681A46BB681B7880
:102884009B0013441B889BB223F4E04323F07003A2
:10289400FB84FB681B681A46BB681B789B001A44C0
:1028A400FB8C43F07F4343F47F0343F4404343F002
:1028B40080039BB21380DBE0FB8803F48043002B8E
:1028C4001FD1FB681B681A46BB681B789B00134426
:1028D4001B889BB223F4E04323F07003BB85FB68A1
:1028E4001B681A46BB681B789B001A44BB8D43F0D7
:1028F4007F4343F47F0343F4404343F080039BB29C
:102904001380BB6893F82430012B40F0B180BB687E
:102914005A69FB8D1A44BB685A61BB68DA69FB8D3E
:102924001A44BB68DA61BB681A6ABB681B699A42BD
:1029340009D3BB681B69BB63BB681A6ABB6BD21A39
:10294400BB681A6214E0BB681B6A002B06D1FB8DBE
:10295400BB63BB68002283F8242009E0BB681B6AC0
:10296400BB63BB6800221A62BB68002283F8242080
:10297400FB681B687B63BB685B78002B55D1FB68E5
:102984001B687B64FB681B68B3F850309BB21A4623
:102994007B6C13447B64BB681B781A017B6C134407
:1029A40003F20C433B64BB6B002B12D13B6C1B88C2
:1029B4009BB223F4F8439AB23B6C1A803B6C1B889D
:1029C4009BB26FEA43436FEA53439AB23B6C1A805B
:1029D40044E0BB6B3E2B11D8BB6B5B08FB63BB6B4A
:1029E40003F00103002B02D0FB6B0133FB63FB6B91
:1029F4009BB29B029AB23B6C1A802FE0BB6B5B09C3
:102A0400FB63BB6B03F01F03002B02D1FB6B013B89
:102A1400FB63FB6B9BB29B029BB26FEA43436FEA7F
:102A240053439AB23B6C1A8018E0BB685B78012B65
:102A340014D1FB681B68B3F850309BB21A467B6B09
:102A440013447B63BB681B781A017B6B134403F24A
:102A54000C433B63BB6B9AB23B6B1A80FB681868F0
:102A6400BB685969BB685A89BB6B9BB203F08EFA89
:102A7400FB681B681A46BB681B789B0013441B88C1
:102A84009BB223F4E04323F040033B823B8A83F070
:102A940010033B823B8A83F020033B82FB681B6864
:102AA4001A46BB681B789B001A443B8A43F07F4359
:102AB40043F47F0343F4004343F080039BB2138049
:102AC400002318464837BD4680BD80B487B000AFA8
:102AD400F8607B600B467B8113463B817B8903F066
:102AE40080039BB2002B0BD07B8903F007035A1C95
:102AF40013469B001344DB00FA6813447B6109E02E
:102B04007A8913469B001344DB0003F5B473FA6817
:102B140013447B613B89002B07D17B6900221A7324
:102B24007B689AB27B69DA800BE07B6901221A73B5
:102B34007B689AB27B691A817B681B0C9AB27B69A9
:102B44005A81002318461C37BD4680BC70470000DC
:102B540080B586B000AF78607B68002B01D101237B
:102B64006CE27B681B6803F00103002B00F0878094
:102B7400924B5B6803F00C03042B0CD08F4B5B6807
:102B840003F00C03082B12D18C4B5B6803F48033E5
:102B9400B3F5803F0BD1894B1B6803F40033002B42
:102BA4006CD07B685B68002B68D1012346E27B68AC
:102BB4005B68B3F5803F06D1804B1B687F4A43F4C2
:102BC400803313602EE07B685B68002B0CD17B4B59
:102BD4001B687A4A23F480331360784B1B68774A66
:102BE40023F4802313601DE07B685B68B3F5A02F9A
:102BF4000CD1724B1B68714A43F4802313606F4BF2
:102C04001B686E4A43F4803313600BE06B4B1B6804
:102C14006A4A23F480331360684B1B68674A23F4C1
:102C2400802313607B685B68002B13D0FDF750FF93
:102C3400386108E0FDF74CFF02463B69D31A642B68
:102C440001D90323FAE15D4B1B6803F40033002B25
:102C5400F0D014E0FDF73CFF386108E0FDF738FFE1
:102C640002463B69D31A642B01D90323E6E1534B93
:102C74001B6803F40033002BF0D100E000BF7B6835
:102C84001B6803F00203002B63D04C4B5B6803F01A
:102C94000C03002B0BD0494B5B6803F00C03082B8F
:102CA4001CD1464B5B6803F48033002B16D1434B95
:102CB4001B6803F00203002B05D07B681B69012B02
:102CC40001D00123BAE13D4B1B6823F0F8027B6875
:102CD4005B69DB00394913430B603AE07B681B698D
:102CE400002B20D0364B01221A60FDF7F1FE38612B
:102CF40008E0FDF7EDFE02463B69D31A022B01D929
:102D040003239BE12D4B1B6803F00203002BF0D03F
:102D14002A4B1B6823F0F8027B685B69DB002749B8
:102D240013430B6015E0264B00221A60FDF7D0FE1A
:102D3400386108E0FDF7CCFE02463B69D31A022B4A
:102D440001D903237AE11D4B1B6803F00203002B16
:102D5400F0D17B681B6803F00803002B3AD07B6832
:102D64009B69002B19D0174B01221A60FDF7B0FEA6
:102D7400386108E0FDF7ACFE02463B69D31A022B2A
:102D840001D903235AE10D4B5B6A03F00203002BC4
:102D9400F0D0012000F0DAFA1CE00A4B00221A609D
:102DA400FDF796FE38610FE0FDF792FE02463B699F
:102DB400D31A022B08D9032340E100BF00100240BC
:102DC40000004242800442429E4B5B6A03F00203CD
:102DD400002BE9D17B681B6803F00403002B00F08F
:102DE400A6800023FB75974BDB6903F08053002B0F
:102DF4000DD1944BDB69934A43F08053D361914BDB
:102E0400DB6903F08053BB60BB680123FB758E4B09
:102E14001B6803F48073002B18D18B4B1B688A4A00
:102E240043F480731360FDF753FE386108E0FDF747
:102E34004FFE02463B69D31A642B01D90323FDE0FC
:102E4400814B1B6803F48073002BF0D07B68DB6834
:102E5400012B06D17B4B1B6A7A4A43F001031362B0
:102E64002DE07B68DB68002B0CD1764B1B6A754A1E
:102E740023F001031362734B1B6A724A23F00403A9
:102E840013621CE07B68DB68052B0CD16D4B1B6A5D
:102E94006C4A43F0040313626A4B1B6A694A43F0A9
:102EA400010313620BE0674B1B6A664A23F00103BC
:102EB4001362644B1B6A634A23F0040313627B6846
:102EC400DB68002B15D0FDF703FE38610AE0FDF73F
:102ED400FFFD02463B69D31A41F28832934201D97D
:102EE4000323ABE0574B1B6A03F00203002BEED025
:102EF40014E0FDF7EDFD38610AE0FDF7E9FD024657
:102F04003B69D31A41F28832934201D9032395E0F5
:102F14004C4B1B6A03F00203002BEED1FB7D012B0B
:102F240005D1484BDB69474A23F08053D3617B6862
:102F3400DB69002B00F08180424B5B6803F00C03DB
:102F4400082B61D07B68DB69022B46D13F4B002202
:102F54001A60FDF7BDFD386108E0FDF7B9FD0246D2
:102F64003B69D31A022B01D9032367E0354B1B6855
:102F740003F00073002BF0D17B681B6AB3F5803F2C
:102F840008D1304B5B6823F400327B689B682D4981
:102F940013434B602B4B5B6823F474127B68196AF0
:102FA4007B685B6A0B43274913434B60274B012221
:102FB4001A60FDF78DFD386108E0FDF789FD0246D2
:102FC4003B69D31A022B01D9032337E01D4B1B683D
:102FD40003F00073002BF0D02FE01C4B00221A608A
:102FE400FDF776FD386108E0FDF772FD02463B69A6
:102FF400D31A022B01D9032320E0124B1B6803F0E0
:103004000073002BF0D118E07B68DB69012B01D140
:10301400012313E00B4B5B68FB60FB6803F4803215
:103024007B681B6A9A4206D1FB6803F470127B68C2
:103034005B6A9A4201D0012300E000231846183746
:10304400BD4680BD00100240007000406000424256
:1030540080B584B000AF786039607B68002B01D103
:103064000123D0E06A4B1B6803F007033A689A42D5
:1030740010D9674B1B6823F0070265493B6813436B
:103084000B60634B1B6803F007033A689A4201D054
:103094000123B8E07B681B6803F00203002B20D0F7
:1030A4007B681B6803F00403002B05D0594B5B6855
:1030B400584A43F4E06353607B681B6803F00803D9
:1030C400002B05D0534B5B68524A43F46053536062
:1030D400504B5B6823F0F0027B689B684D491343B7
:1030E4004B607B681B6803F00103002B40D07B68B6
:1030F4005B68012B07D1474B1B6803F40033002B9B
:1031040015D101237FE07B685B68022B07D1414B1B
:103114001B6803F00073002B09D1012373E03D4BBE
:103124001B6803F00203002B01D101236BE0394B30
:103134005B6823F003027B685B68364913434B608A
:10314400FDF7C6FCF8600AE0FDF7C2FC0246FB6826
:10315400D31A41F28832934201D9032353E02D4B11
:103164005B6803F00C027B685B689B009A42EBD1BE
:10317400274B1B6803F007033A689A4210D2244B8A
:103184001B6823F0070222493B6813430B60204B62
:103194001B6803F007033A689A4201D0012332E026
:1031A4007B681B6803F00403002B08D0194B5B6891
:1031B40023F4E0627B68DB68164913434B607B6849
:1031C4001B6803F00803002B09D0124B5B6823F43F
:1031D40060527B681B69DB000E4913434B6000F0AF
:1031E40021F801460B4B5B681B0903F00F030A4AE5
:1031F400D35C21FA03F3094A1360094B1B68184690
:10320400FDF724FC002318461037BD4680BD00BFDF
:1032140000200240001002404C82000804000020FC
:103224000800002090B48AB000AF2A4B3C1D0FCB9D
:1032340084E80F00284B1B883B800023FB6100239C
:10324400BB6100237B6200237B6100233B62234B31
:103254005B68FB61FB6903F00C03042B02D0082BB1
:1032640003D02DE01E4B3B622DE0FB699B0C03F069
:103274000F0307F12802134413F8243C7B61FB6914
:1032840003F48033002B13D0144B5B685B0C03F006
:10329400010307F12802134413F8283CBB617B693E
:1032A4000F4A02FB03F2BB69B2FBF3F37B6204E057
:1032B4007B690C4A02FB03F37B627B6A3B6202E09C
:1032C400074B3B6200BF3B6A18462837BD4690BC9B
:1032D400704700BFF081000800820008001002401F
:1032E40000127A0000093D0080B400AF024B1B6855
:1032F4001846BD4680BC70470400002080B500AF6E
:10330400FFF7F2FF0146054B5B681B0A03F0070356
:10331400034AD35C21FA03F3184680BD001002402F
:103324005C82000880B500AFFFF7DEFF0146054B65
:103334005B68DB0A03F00703034AD35C21FA03F357
:10334400184680BD001002405C82000880B485B03D
:1033540000AF78600A4B1B680A4AA2FB03235B0A8E
:103364007A6802FB03F3FB6000BFFB685A1EFA6035
:10337400002BF9D100BF1437BD4680BC704700BF95
:1033840004000020D34D621080B586B000AF786091
:1033940000233B610023FB607B681B6803F001038F
:1033A400002B7DD00023FB754F4BDB6903F080536A
:1033B400002B0DD14C4BDB694B4A43F08053D36156
:1033C400494BDB6903F08053BB60BB680123FB7589
:1033D400464B1B6803F48073002B18D1434B1B68C6
:1033E400424A43F480731360FDF772FB386108E0CE
:1033F400FDF76EFB02463B69D31A642B01D9032304
:103404006DE03A4B1B6803F48073002BF0D0364B0D
:103414001B6A03F44073FB60FB68002B2ED07B68AF
:103424005B6803F44073FA689A4227D02E4B1B6AF8
:1034340023F44073FB602E4B01221A602C4B0022B4
:103444001A60294AFB681362FB6803F00103002B2E
:1034540014D0FDF73DFB38610AE0FDF739FB024665
:103464003B69D31A41F28832934201D9032336E0EF
:103474001D4B1B6A03F00203002BEED01A4B1B6A90
:1034840023F440727B685B68174913430B62FB7D2E
:10349400012B05D1144BDB69134A23F08053D3610C
:1034A4007B681B6803F00203002B08D00E4B5B689B
:1034B40023F440427B689B680B4913434B607B6851
:1034C4001B6803F01003002B08D0074B5B6823F440
:1034D40080027B685B69044913434B6000231846F0
:1034E4001837BD4680BD00BF001002400070004088
:1034F4004004424280B582B000AF78607B68002B04
:1035040001D1012341E07B6893F83D30DBB2002B0D
:1035140006D17B68002283F83C207868FDF76EF9B9
:103524007B68022283F83D207B681A687B68043339
:103534001946104600F0A0FA7B68012283F8462061
:103544007B68012283F83E207B68012283F83F20B8
:103554007B68012283F840207B68012283F84120A4
:103564007B68012283F842207B68012283F8432090
:103574007B68012283F844207B68012283F845207C
:103584007B68012283F83D20002318460837BD4696
:1035940080BD000080B485B000AF78607B6893F88C
:1035A4003D30DBB2012B01D0012344E07B680222D1
:1035B40083F83D207B681B68DA687B681B6842F0EF
:1035C4000102DA607B681B681D4A934218D07B684D
:1035D4001B681C4A934213D07B681B68B3F1804F6D
:1035E4000ED07B681B68184A934209D07B681B681D
:1035F400164A934204D07B681B68154A934211D142
:103604007B681B689B6803F00703FB60FB68062B61
:1036140010D07B681B681A687B681B6842F0010243
:103624001A6007E07B681B681A687B681B6842F0B5
:1036340001021A60002318461437BD4680BC704747
:10364400002C014000340140000400400008004008
:10365400000C004080B483B000AF78607B681B68C6
:10366400DA687B681B6822F00102DA607B681B68F9
:103674001A6A41F211131340002B0FD17B681B68A7
:103684001A6A40F244431340002B07D17B681B683D
:103694001A687B681B6822F001021A607B680122A9
:1036A40083F83D20002318460C37BD4680BC704784
:1036B40080B582B000AF78607B681B681B6903F03B
:1036C4000203022B22D17B681B68DB6803F0020330
:1036D400022B1BD17B681B686FF002021A617B68A6
:1036E40001221A777B681B689B6903F00303002B94
:1036F40003D0786800F0A4F905E0786800F097F941
:10370400786800F0A6F97B6800221A777B681B684A
:103714001B6903F00403042B22D17B681B68DB685C
:1037240003F00403042B1BD17B681B686FF00402B5
:103734001A617B6802221A777B681B689B6903F411
:103744004073002B03D0786800F07AF905E07868BC
:1037540000F06DF9786800F07CF97B6800221A7734
:103764007B681B681B6903F00803082B22D17B6864
:103774001B68DB6803F00803082B1BD17B681B68FC
:103784006FF008021A617B6804221A777B681B6851
:10379400DB6903F00303002B03D0786800F050F9D1
:1037A40005E0786800F043F9786800F052F97B6826
:1037B40000221A777B681B681B6903F01003102B27
:1037C40022D17B681B68DB6803F01003102B1BD12C
:1037D4007B681B686FF010021A617B6808221A77F5
:1037E4007B681B68DB6903F44073002B03D07868A3
:1037F40000F026F905E0786800F019F9786800F01F
:1038040028F97B6800221A777B681B681B6903F020
:103814000103012B0ED17B681B68DB6803F00103F5
:10382400012B07D17B681B686FF001021A6178686D
:10383400FCF7DCFD7B681B681B6903F08003802BAD
:103844000ED17B681B68DB6803F08003802B07D1F3
:103854007B681B686FF080021A61786800F091FA47
:103864007B681B681B6903F04003402B0ED17B6807
:103874001B68DB6803F04003402B07D17B681B689F
:103884006FF040021A61786800F0ECF87B681B68FE
:103894001B6903F02003202B0ED17B681B68DB68B7
:1038A40003F02003202B07D17B681B686FF02002F4
:1038B4001A61786800F05CFA00BF0837BD4680BD25
:1038C40080B584B000AF786039607B6893F83C3091
:1038D400012B01D10223A6E07B68012283F83C205E
:1038E4007B68022283F83D207B681B689B68FB6031
:1038F400FB6823F07703FB60FB6823F47F43FB60E2
:103904007B681B68FA689A603B681B68402B67D029
:10391400402B0BD8102B73D0102B02D8002B6FD058
:1039240078E0202B6CD0302B6AD073E0702B0DD054
:10393400702B04D8502B33D0602B41D06AE0B3F500
:10394400805F66D0B3F5005F17D063E07B681868CA
:103954003B6899683B685A683B68DB6800F07DF90E
:103964007B681B689B68FB60FB6843F07703FB6024
:103974007B681B68FA689A604CE07B6818683B684F
:1039840099683B685A683B68DB6800F066F97B68B5
:103994001B689A687B681B6842F480429A6039E02D
:1039A4007B6818683B6859683B68DB681A4600F016
:1039B400DDF87B681B685021184600F034F929E0D3
:1039C4007B6818683B6859683B68DB681A4600F0F6
:1039D400FBF87B681B686021184600F024F919E0A5
:1039E4007B6818683B6859683B68DB681A4600F0D6
:1039F400BDF87B681B684021184600F014F909E003
:103A04007B681A683B681B681946104600F00BF97E
:103A140000E000BF7B68012283F83D207B68002220
:103A240083F83C20002318461037BD4680BD80B47F
:103A340083B000AF786000BF0C37BD4680BC7047D0
:103A440080B483B000AF786000BF0C37BD4680BC43
:103A5400704780B483B000AF786000BF0C37BD46B8
:103A640080BC704780B483B000AF786000BF0C376F
:103A7400BD4680BC7047000080B485B000AF78605C
:103A840039607B681B68FB607B68334A934213D0C0
:103A94007B68324A93420FD07B68B3F1804F0BD0DE
:103AA4007B682F4A934207D07B682E4A934203D007
:103AB4007B682D4A934208D1FB6823F07003FB60B6
:103AC4003B685B68FA681343FB607B68224A934255
:103AD40013D07B68214A93420FD07B68B3F1804FA7
:103AE4000BD07B681E4A934207D07B681D4A9342E1
:103AF40003D07B681C4A934208D1FB6823F44073CB
:103B0400FB603B68DB68FA681343FB60FB6823F0E7
:103B140080023B685B691343FB607B68FA681A6048
:103B24003B689A687B68DA623B681A687B689A62C9
:103B34007B68094A934203D07B68084A934203D1C5
:103B44003B681A697B681A637B6801225A6100BF6B
:103B54001437BD4680BC7047002C0140003401403E
:103B64000004004000080040000C004080B487B00E
:103B740000AFF860B9607A60FB681B6A7B61FB6820
:103B84001B6A23F00102FB681A62FB689B693B61B4
:103B94003B6923F0F0033B617B681B013A691343E3
:103BA4003B617B6923F00A037B617A69BB68134339
:103BB4007B61FB683A699A61FB687A691A6200BFA3
:103BC4001C37BD4680BC704780B487B000AFF86036
:103BD400B9607A60FB681B6A23F01002FB681A6202
:103BE400FB689B697B61FB681B6A3B617B6923F40F
:103BF40070437B617B681B037A6913437B613B6978
:103C040023F0A0033B61BB681B013A6913433B618A
:103C1400FB687A699A61FB683A691A6200BF1C37CB
:103C2400BD4680BC704780B485B000AF7860396011
:103C34007B689B68FB60FB6823F07003FB603A6859
:103C4400FB68134343F00703FB607B68FA689A60E0
:103C540000BF1437BD4680BC704780B487B000AF46
:103C6400F860B9607A603B60FB689B687B617B6944
:103C740023F47F437B613B681A027B681A43BB6869
:103C840013437A6913437B61FB687A699A6000BFC6
:103C94001C37BD4680BC704780B485B000AF7860E7
:103CA40039607B6893F83C30012B01D1022350E04A
:103CB4007B68012283F83C207B68022283F83D2044
:103CC4007B681B685B68FB607B681B689B68BB60E8
:103CD400FB6823F07003FB603B681B68FA681343BE
:103CE400FB607B681B68FA685A607B681B681B4A28
:103CF400934218D07B681B68194A934213D07B689F
:103D04001B68B3F1804F0ED07B681B68154A934241
:103D140009D07B681B68144A934204D07B681B68F3
:103D2400124A93420CD1BB6823F08003BB603B680A
:103D34005B68BA681343BB607B681B68BA689A60A7
:103D44007B68012283F83D207B68002283F83C20B5
:103D5400002318461437BD4680BC7047002C014030
:103D6400003401400004004000080040000C004002
:103D740080B483B000AF786000BF0C37BD4680BC10
:103D8400704780B483B000AF786000BF0C37BD4685
:103D940080BC704780B582B000AF78607B68002B30
:103DA40001D101233FE07B6893F83930DBB2002B6B
:103DB40006D17B68002283F838207868FCF75CFD24
:103DC4007B68242283F839207B681B68DA687B6867
:103DD4001B6822F40052DA60786800F029F87B68E6
:103DE4001B681A697B681B6822F490421A617B681D
:103DF4001B685A697B681B6822F02A025A617B6837
:103E04001B68DA687B681B6842F40052DA607B68DE
:103E14000022DA637B68202283F839207B68202221
:103E240083F83A20002318460837BD4680BD0000B9
:103E340080B584B000AF78607B681B681B6923F48D
:103E440040517B68DA687B681B680A431A617B68A7
:103E54009A687B681B691A437B685B691343BB6080
:103E64007B681B68DB6823F4B05323F00C037A6887
:103E74001268B9680B43D3607B681B685B6923F4E1
:103E840040717B689A697B681B680A435A617B6846
:103E94001B682C4A934203D1FFF744FAF86002E00E
:103EA400FFF72CFAF860FA6813469B0013449A0053
:103EB4001A447B685B689B00B2FBF3F3224AA2FBC3
:103EC40003235B091901FA6813469B0013449A0003
:103ED4001A447B685B689B00B2FBF3F21A4BA3FBAA
:103EE40002035B09642000FB03F3D31A1B01323382
:103EF400154AA2FB03235B0903F0F0031944FA6893
:103F040013469B0013449A001A447B685B689B0029
:103F1400B2FBF3F20C4BA3FB02035B09642000FB2E
:103F240003F3D31A1B013233074AA2FB03235B09B1
:103F340003F00F027B681B680A449A6000BF1037C5
:103F4400BD4680BD003801401F85EB5184B080B46C
:103F540083B000AF786007F1140080E80E000023FE
:103F640018460C37BD4680BC04B0704780B485B099
:103F740000AF78607B680022A3F844204FF43F43ED
:103F8400FB60FB689AB27B68A3F8402000231846C4
:103F94001437BD4680BC704780B485B000AF7860EC
:103FA4004FF43F43FB607B68B3F840309AB2FB6840
:103FB4009BB2DB439BB213409AB27B68A3F84020C8
:103FC400002318461437BD4680BC704780B483B0C4
:103FD40000AF78600B46FB70002318460C37BD46D3
:103FE40080BC704784B080B483B000AF786007F1C0
:103FF400140080E80E007B680122A3F840207B684F
:104004000022A3F840207B680022A3F844207B68A8
:104014000022A3F85020002318460C37BD4680BC6C
:1040240004B0704780B49BB000AF7860396000235F
:1040340087F867307A683B681B789B0013441B88B9
:104044009BB223F4EC4323F07003A7F864303B687D
:10405400DB78032B1FD801A252F823F0714000082B
:104064008D400008A34000087F400008B7F8643082
:1040740043F40073A7F8643012E0B7F8643043F4F3
:10408400C063A7F864300BE0B7F8643043F480638E
:10409400A7F8643004E0012387F8673000E000BF2C
:1040A4007A683B681B789B001A44B7F8643043F085
:1040B4007F4343F47F0343F4004343F080039BB204
:1040C40013807A683B681B789B0013441B889BB25F
:1040D40023F4E04323F070039AB23B681B789BB24D
:1040E4001343A7F85E307A683B681B789B001A4438
:1040F400B7F85E3043F07F4343F47F0343F4004357
:1041040043F080039BB213803B681B7B002B40F081
:1041140049813B685B78002B00F084807B687B617D
:104124007B68B3F850309BB21A467B6913447B61B9
:104134003B681B781A017B69134403F580633B6178
:104144003B68DB885B089BB25B009AB23B691A80D0
:104154007A683B681B789B0013441B88FB81FB89AE
:1041640003F04003002B1BD07A683B681B789B004C
:1041740013441B889BB223F4E04323F07003BB81F8
:104184007A683B681B789B001A44BB8943F07F43E1
:1041940043F47F0343F4004343F0C0039BB2138012
:1041A4003B68DB78012B20D07A683B681B789B0046
:1041B40013441B889BB223F4E04323F040033B8168
:1041C4003B8983F020033B817A683B681B789B0022
:1041D4001A443B8943F07F4343F47F0343F4004391
:1041E40043F080039BB213807FE27A683B681B78BC
:1041F4009B0013441B889BB223F4E04323F0400349
:104204007B817A683B681B789B001A447B8943F066
:104214007F4343F47F0343F4004343F080039BB2A2
:10422400138062E27B68FB627B68B3F850309BB218
:104234001A46FB6A1344FB623B681B781A01FB6A4B
:10424400134403F58163BB623B68DB885B089BB264
:104254005B009AB2BB6A1A807B687B627B68B3F8A6
:1042640050309BB21A467B6A13447B623B681B78CE
:104274001A017B6A134403F20C433B623B681B69DB
:10428400002B12D13B6A1B889BB223F4F8439AB2E9
:104294003B6A1A803B6A1B889BB26FEA43436FEA0E
:1042A40053439AB23B6A1A802FE03B681B693E2B4A
:1042B40013D83B681B695B083B663B681B6903F0CA
:1042C4000103002B02D03B6E01333B663B6E9BB275
:1042D4009B029AB23B6A1A8017E03B681B695B0930
:1042E4003B663B681B6903F01F03002B02D13B6E46
:1042F400013B3B663B6E9BB29B029BB26FEA43431E
:104304006FEA53439AB23B6A1A807A683B681B7817
:104314009B0013441B88FB83FB8B03F48043002B1B
:104324001BD07A683B681B789B0013441B889BB2A4
:1043340023F4E04323F07003BB837A683B681B7863
:104344009B001A44BB8B43F07F4343F47F0343F445
:10435400404343F080039BB213807A683B681B7828
:104364009B0013441B889BB223F4804323F0700307
:104374007B837B8B83F480537B837B8B83F400531D
:104384007B837A683B681B789B001A447B8B43F0E1
:104394007F4343F47F0343F4004343F080039BB221
:1043A4001380A2E17A683B681B789B0013441B8846
:1043B4009BB223F4E04323F07003A7F85C307A68DF
:1043C4003B681B789B001A44B7F85C3043F07F438A
:1043D40043F47F0343F4014343F080039BB213800F
:1043E4007B68BB657B68B3F850309BB21A46BB6DE3
:1043F4001344BB653B681B781A01BB6D134403F57A
:1044040080637B653B681B895B089BB25B009AB247
:104414007B6D1A807B683B657B68B3F850309BB238
:104424001A463B6D13443B653B681B781A013B6D90
:10443400134403F58163FB643B685B895B089BB2AF
:104444005B009AB2FB6C1A803B685B78002B40F0EF
:1044540091807A683B681B789B0013441B88BB8758
:10446400BB8F03F48043002B1BD07A683B681B7816
:104474009B0013441B889BB223F4E04323F0700396
:104484007B877A683B681B789B001A447B8F43F0D8
:104494007F4343F47F0343F4404343F080039BB2E0
:1044A40013807A683B681B789B0013441B883B8706
:1044B4003B8F03F04003002B1BD07A683B681B78CA
:1044C4009B0013441B889BB223F4E04323F0700346
:1044D400FB867A683B681B789B001A44FB8E43F08A
:1044E4007F4343F47F0343F4004343F0C0039BB290
:1044F40013807A683B681B789B0013441B889BB22B
:1045040023F4804323F07003BB86BB8E83F4805373
:10451400BB86BB8E83F40053BB867A683B681B78EA
:104524009B001A44BB8E43F07F4343F47F0343F460
:10453400004343F080039BB213807A683B681B7886
:104544009B0013441B889BB223F4E04323F04003F5
:104554007B867A683B681B789B001A447B8E43F009
:104564007F4343F47F0343F4004343F080039BB24F
:104574001380BAE07A683B681B789B0013441B885D
:10458400A7F84A30B7F84A3003F48043002B1DD013
:104594007A683B681B789B0013441B889BB223F406
:1045A400E04323F07003A7F848307A683B681B782F
:1045B4009B001A44B7F8483043F07F4343F47F0329
:1045C40043F4404343F080039BB213807A683B6812
:1045D4001B789B0013441B88A7F84630B7F8463075
:1045E40003F04003002B1DD07A683B681B789B00C6
:1045F40013441B889BB223F4E04323F07003A7F811
:1046040044307A683B681B789B001A44B7F84430FE
:1046140043F07F4343F47F0343F4004343F0C00378
:104624009BB213803B68DB78012B24D07A683B680B
:104634001B789B0013441B889BB223F4E04323F0B4
:104644004003A7F84030B7F8403083F02003A7F8C0
:1046540040307A683B681B789B001A44B7F84030B6
:1046640043F07F4343F47F0343F4004343F0800368
:104674009BB213801DE07A683B681B789B0013444F
:104684001B889BB223F4E04323F04003A7F8423095
:104694007A683B681B789B001A44B7F8423043F0B1
:1046A4007F4343F47F0343F4004343F080039BB20E
:1046B40013807A683B681B789B0013441B889BB269
:1046C40023F4804323F07003FB877A683B681B78EC
:1046D4009B001A44FB8F43F07F4343F47F0343F46E
:1046E400004343F080039BB2138097F86730184669
:1046F4006C37BD4680BC704780B48DB000AF786025
:1047040039603B681B7B002B40F08E803B685B78F4
:10471400002B44D07A683B681B789B0013441B88A9
:10472400BB81BB8903F04003002B1BD07A683B6834
:104734001B789B0013441B889BB223F4E04323F0B3
:1047440070037B817A683B681B789B001A447B89E1
:1047540043F07F4343F47F0343F4004343F0C00337
:104764009BB213807A683B681B789B0013441B88B8
:104774009BB223F4E04323F040033B817A683B6817
:104784001B789B001A443B8943F07F4343F47F0327
:1047940043F4004343F080039BB2138092E17A68B0
:1047A4003B681B789B0013441B887B827B8A03F441
:1047B4008043002B1BD07A683B681B789B00134412
:1047C4001B889BB223F4E04323F070033B827A6896
:1047D4003B681B789B001A443B8A43F07F4343F4B5
:1047E4007F0343F4404343F080039BB213807A6811
:1047F4003B681B789B0013441B889BB223F48043C3
:1048040023F07003FB817A683B681B789B001A4491
:10481400FB8943F07F4343F47F0343F4004343F0B5
:1048240080039BB213804DE13B685B78002B40F022
:10483400A5807A683B681B789B0013441B883B84E3
:104844003B8C03F48043002B1BD07A683B681B78B5
:104854009B0013441B889BB223F4E04323F07003B2
:10486400FB837A683B681B789B001A44FB8B43F0FC
:104874007F4343F47F0343F4404343F080039BB2FC
:1048840013807A683B681B789B0013441B88BB83A6
:10489400BB8B03F04003002B1BD07A683B681B786A
:1048A4009B0013441B889BB223F4E04323F0700362
:1048B4007B837A683B681B789B001A447B8B43F0AC
:1048C4007F4343F47F0343F4004343F0C0039BB2AC
:1048D40013807A683B681B789B0013441B889BB247
:1048E40023F4E04323F070033B837A683B681B782E
:1048F4009B001A443B8B43F07F4343F47F0343F410
:10490400004343F0C0039BB213807A683B681B7872
:104914009B0013441B889BB223F4804323F0700351
:10492400FB827A683B681B789B001A44FB8A43F03D
:104934007F4343F47F0343F4004343F080039BB27B
:1049440013807A683B681B789B0013441B889BB2D6
:1049540023F4E04323F04003BB827A683B681B786E
:104964009B001A44BB8A43F07F4343F47F0343F420
:10497400004343F080039BB21380A3E07A683B6852
:104984001B789B0013441B88FB85FB8D03F4804339
:10499400002B1BD07A683B681B789B0013441B8850
:1049A4009BB223F4E04323F07003BB857A683B6831
:1049B4001B789B001A44BB8D43F07F4343F47F0371
:1049C40043F4404343F080039BB213807A683B680E
:1049D4001B789B0013441B887B857B8D03F040036D
:1049E400002B1BD07A683B681B789B0013441B8800
:1049F4009BB223F4E04323F070033B857A683B6861
:104A04001B789B001A443B8D43F07F4343F47F03A0
:104A140043F4004343F0C0039BB213807A683B68BD
:104A24001B789B0013441B889BB223F4E04323F0C0
:104A34007003FB847A683B681B789B001A44FB8CE8
:104A440043F07F4343F47F0343F4404343F0800344
:104A54009BB213807A683B681B789B0013441B88C5
:104A64009BB223F4E04323F04003BB847A683B68A1
:104A74001B789B001A44BB8C43F07F4343F47F03B1
:104A840043F4004343F080039BB213807A683B688D
:104A94001B789B0013441B889BB223F4804323F0B0
:104AA40070037B847A683B681B789B001A447B8C78
:104AB40043F07F4343F47F0343F4004343F0800314
:104AC4009BB21380002318463437BD4680BC704720
:104AD40080B5C4B000AF3B1D18603B4619603B462F
:104AE4001B685B78012B40F057853B461B689A692D
:104AF4003B461B681B699A4205D93B461B681B69E8
:104B0400C7F80C3104E03B461B689B69C7F80C31BD
:104B14003B461B681B7B002B2CD13B461B68596909
:104B24003B461B68DA88D7F80C319BB2381D006805
:104B340001F02CFA3B1D1B687B613B1D1B68B3F81D
:104B440050309BB21A467B6913447B613B461B6819
:104B54001B781A017B69134403F2044207F1100322
:104B64001A60D7F80C319AB207F110031B681A8047
:104B740000F0DDBC3B461B68DB78022B40F047832A
:104B84003B461B681A6A3B461B681B699A4240F203
:104B9400EB823B1D1A683B461B681B789B00134441
:104BA4001B889BB223F4E04323F07003A7F85A3028
:104BB4003B1D1A683B461B681B789B001A44B7F8D8
:104BC4005A3043F07F4343F47F0343F4014343F0FB
:104BD40080039BB213803B461B681A6AD7F80C31DA
:104BE400D21A3B461B681A623B1D1A683B461B6877
:104BF4001B789B0013441B889BB203F04003002BDB
:104C040000F059813B1D1B687B633B461B685B7846
:104C1400002B64D13B1D1B68FB623B1D1B68B3F872
:104C240050309BB21A46FB6A1344FB623B461B6836
:104C34001B781A01FB6A134403F20C43BB62D7F8D6
:104C44000C31002B12D1BB6A1B889BB223F4F843AE
:104C54009AB2BB6A1A80BB6A1B889BB26FEA434351
:104C64006FEA53439AB2BB6A1A8054E0D7F80C3106
:104C74003E2B17D8D7F80C315B08C7F80431D7F8A6
:104C84000C3103F00103002B04D0D7F804310133B5
:104C9400C7F80431D7F804319BB29B029AB2BB6ABD
:104CA4001A8038E0D7F80C315B09C7F80431D7F81B
:104CB4000C3103F01F03002B04D1D7F80431013B5E
:104CC400C7F80431D7F804319BB29B029BB26FEA58
:104CD40043436FEA53439AB2BB6A1A801BE03B46D4
:104CE4001B685B78012B16D13B1D1B68B3F8503051
:104CF4009BB21A467B6B13447B633B461B681B7851
:104D04001A017B6B134403F20C433B63D7F80C3159
:104D14009AB23B6B1A803B461B685B89A7F80A3141
:104D24003B461B685969D7F80C319BB2B7F80A2186
:104D3400381D006801F02AF93B461B685A69D7F808
:104D44000C311A443B461B685A613B461B681A6A7D
:104D54003B461B681B699A4209D93B461B681A6A81
:104D6400D7F80C31D21A3B461B681A6208E03B465E
:104D74001B681B6AC7F80C313B461B6800221A6289
:104D84003B461B685B78002B64D13B1D1B68FB61B1
:104D94003B1D1B68B3F850309BB21A46FB691344A1
:104DA400FB613B461B681B781A01FB69134403F241
:104DB4000443BB61D7F80C31002B12D1BB691B88AB
:104DC4009BB223F4F8439AB2BB691A80BB691B886F
:104DD4009BB26FEA43436FEA53439AB2BB691A80AA
:104DE40057E0D7F80C313E2B17D8D7F80C315B08B5
:104DF400C7F80031D7F80C3103F00103002B04D0BD
:104E0400D7F800310133C7F80031D7F800319BB22D
:104E14009B029AB2BB691A803BE0D7F80C315B095C
:104E2400C7F80031D7F80C3103F01F03002B04D16D
:104E3400D7F80031013BC7F80031D7F800319BB2F5
:104E44009B029BB26FEA43436FEA53439AB2BB6936
:104E54001A801EE03B461B685B78012B19D13B1D71
:104E64001B687B623B1D1B68B3F850309BB21A462B
:104E74007B6A13447B623B461B681B781A017B6A7E
:104E8400134403F204433B62D7F80C319AB23B6AF1
:104E94001A803B461B681B89A7F80A313B461B68EE
:104EA4005969D7F80C319BB2B7F80A21381D00684C
:104EB40001F06CF83BE33B461B685B78002B64D144
:104EC4003B1D1B68FB643B1D1B68B3F850309BB251
:104ED4001A46FB6C1344FB643B461B681B781A019F
:104EE400FB6C134403F20443BB64D7F80C31002B6E
:104EF40012D1BB6C1B889BB223F4F8439AB2BB6CEF
:104F04001A80BB6C1B889BB26FEA43436FEA53431E
:104F14009AB2BB6C1A8057E0D7F80C313E2B17D8E5
:104F2400D7F80C315B08C7F8FC30D7F80C3103F024
:104F34000103002B04D0D7F8FC300133C7F8FC3050
:104F4400D7F8FC309BB29B029AB2BB6C1A803BE050
:104F5400D7F80C315B09C7F8FC30D7F80C3103F0F3
:104F64001F03002B04D1D7F8FC30013BC7F8FC30F9
:104F7400D7F8FC309BB29B029BB26FEA43436FEAC3
:104F840053439AB2BB6C1A801EE03B461B685B78A5
:104F9400012B19D13B1D1B687B653B1D1B68B3F8B6
:104FA40050309BB21A467B6D13447B653B461B68AD
:104FB4001B781A017B6D134403F204433B65D7F855
:104FC4000C319AB23B6D1A803B461B681B89A7F8CB
:104FD4000A313B461B685969D7F80C319BB2B7F8C4
:104FE4000A21381D006800F0D1FF3B461B685A694E
:104FF400D7F80C311A443B461B685A613B461B6880
:105004001A6A3B461B681B699A4209D93B461B68CE
:105014001A6AD7F80C31D21A3B461B681A6208E0A8
:105024003B461B681B6AC7F80C313B461B680022D1
:105034001A623B1D1B687B643B461B685B78002B34
:1050440064D13B1D1B68FB633B1D1B68B3F85030E8
:105054009BB21A46FB6B1344FB633B461B681B78ED
:105064001A01FB6B134403F20C43BB63D7F80C31F6
:10507400002B12D1BB6B1B889BB223F4F8439AB26A
:10508400BB6B1A80BB6B1B889BB26FEA43436FEA0E
:1050940053439AB2BB6B1A8054E0D7F80C313E2BC1
:1050A40017D8D7F80C315B08C7F8F830D7F80C31AB
:1050B40003F00103002B04D0D7F8F8300133C7F80C
:1050C400F830D7F8F8309BB29B029AB2BB6B1A80C7
:1050D40038E0D7F80C315B09C7F8F830D7F80C3151
:1050E40003F01F03002B04D1D7F8F830013BC7F8B5
:1050F400F830D7F8F8309BB29B029BB26FEA434377
:105104006FEA53439AB2BB6B1A801BE03B461B68A1
:105114005B78012B16D13B1D1B68B3F850309BB252
:105124001A467B6C13447B643B461B681B781A014C
:105134007B6C134403F20C433B64D7F80C319AB2F2
:105144003B6C1A803B461B685B89A7F80A313B46D7
:105154001B685969D7F80C319BB2B7F80A21381D7E
:10516400006800F013FFE2E13B461B681B6AC7F8C6
:105174000C313B1D1A683B461B681B789B0013448B
:105184001B889BB223F4E24323F07003A7F8663034
:105194003B1D1A683B461B681B789B001A44B7F8F2
:1051A400663043F07F4343F47F0343F4004343F00A
:1051B40080039BB213803B1D1B683B663B1D1B6831
:1051C400B3F850309BB21A463B6E13443B663B46E1
:1051D4001B681B781A013B6E134403F20443FB65FE
:1051E400D7F80C319AB2FB6D1A803B461B681B89B9
:1051F400A7F80A313B461B685969D7F80C319BB2B2
:10520400B7F80A21381D006800F0C0FE8FE13B1D8D
:105214001A683B461B681B789B0013441B889BB28F
:1052240003F04003002B00F08F803B1D1B68BB671D
:105234003B461B685B78002B64D13B1D1B683B67B6
:105244003B1D1B68B3F850309BB21A463B6F1344A6
:105254003B673B461B681B781A013B6F134403F200
:105264000C43FB66D7F80C31002B12D1FB6E1B8864
:105274009BB223F4F8439AB2FB6E1A80FB6E1B8830
:105284009BB26FEA43436FEA53439AB2FB6E1A80B0
:1052940054E0D7F80C313E2B17D8D7F80C315B0803
:1052A400C7F8F430D7F80C3103F00103002B04D015
:1052B400D7F8F4300133C7F8F430D7F8F4309BB2A0
:1052C4009B029AB2FB6E1A8038E0D7F80C315B0966
:1052D400C7F8F430D7F80C3103F01F03002B04D1C6
:1052E400D7F8F430013BC7F8F430D7F8F4309BB268
:1052F4009B029BB26FEA43436FEA53439AB2FB6E3D
:105304001A801BE03B461B685B78012B16D13B1DC2
:105314001B68B3F850309BB21A46BB6F1344BB678B
:105324003B461B681B781A01BB6F134403F20C4302
:105334007B67D7F80C319AB27B6F1A803B461B68A7
:105344005B89A7F80A3197E03B461B685B78002B22
:1053540068D13B1D1B68C7F880303B1D1B68B3F840
:1053640050309BB21A46D7F880301344C7F88030C7
:105374003B461B681B781A01D7F88030134403F2AC
:105384000443FB67D7F80C31002B12D1FB6F1B8849
:105394009BB223F4F8439AB2FB6F1A80FB6F1B880D
:1053A4009BB26FEA43436FEA53439AB2FB6F1A808E
:1053B4005DE0D7F80C313E2B17D8D7F80C315B08D9
:1053C400C7F8F030D7F80C3103F00103002B04D0F8
:1053D400D7F8F0300133C7F8F030D7F8F0309BB28B
:1053E4009B029AB2FB6F1A8041E0D7F80C315B093B
:1053F400C7F8F030D7F80C3103F01F03002B04D1A9
:10540400D7F8F030013BC7F8F030D7F8F0309BB252
:105414009B029BB26FEA43436FEA53439AB2FB6F1A
:105424001A8024E03B461B685B78012B1FD13B1D8F
:105434001B68C7F888303B1D1B68B3F850309BB21B
:105444001A46D7F888301344C7F888303B461B689F
:105454001B781A01D7F88830134403F20443C7F8C1
:105464008430D7F80C319AB2D7F884301A803B468E
:105474001B681B89A7F80A313B461B685969D7F892
:105484000C319BB2B7F80A21381D006800F07EFD8C
:105494003B461B685B78002B22D13B1D1A683B46B8
:1054A4001B681B789B0013441B889BB223F4E043C6
:1054B40023F07003A7F868303B1D1A683B461B684D
:1054C4001B789B001A44B7F8683043F07F4343F4D9
:1054D4007F0343F4004343F0C0039BB2138026E0F0
:1054E4003B461B685B78012B21D13B1D1A683B4668
:1054F4001B681B789B0013441B889BB223F4E04376
:1055040023F07003A7F86A303B1D1A683B461B68FA
:105514001B789B001A44B7F86A3043F07F4343F486
:105524007F0343F4404343F080039BB213803B1D4D
:105534001A683B461B681B789B0013441B889BB26C
:1055440007F10E0223F4E04323F04003138007F134
:105554000E0307F10E02128882F010021A8007F17E
:105564000E0307F10E02128882F020021A803B1DFE
:105574001A683B461B681B789B001A4407F10E030C
:105584001B8843F07F4343F47F0343F4004343F019
:1055940080039BB21380B5E33B461B681B7B002B47
:1055A40040F090803B461B689A693B461B681B6928
:1055B4009A420ED93B461B681B69C7F80C313B461F
:1055C4001B689A69D7F80C31D21A3B461B689A615A
:1055D40008E03B461B689B69C7F80C313B461B68D7
:1055E40000229A613B1D1B68C7F894303B1D1B6861
:1055F400B3F850309BB21A46D7F894301344C7F826
:1056040094303B461B681B781A01D7F89430134436
:1056140003F20C43C7F89030D7F80C31002B16D1A5
:10562400D7F890301B889BB223F4F8439AB2D7F88A
:1056340090301A80D7F890301B889BB26FEA4343AE
:105644006FEA53439AB2D7F890301A802CE3D7F814
:105654000C313E2B18D8D7F80C315B08C7F8EC3066
:10566400D7F80C3103F00103002B04D0D7F8EC3049
:105674000133C7F8EC30D7F8EC309BB29B029AB2F6
:10568400D7F890301A800FE3D7F80C315B09C7F8CC
:10569400EC30D7F80C3103F01F03002B04D1D7F8FA
:1056A400EC30013BC7F8EC30D7F8EC309BB29B02EE
:1056B4009BB26FEA43436FEA53439AB2D7F89030F0
:1056C4001A80F1E23B461B68DB78022B40F08F81A5
:1056D4003B461B685B78002B75D13B1D1B68C7F8E4
:1056E400B0303B1D1B68B3F850309BB21A46D7F854
:1056F400B0301344C7F8B0303B461B681B781A011E
:10570400D7F8B030134403F20443C7F8AC303B4637
:105714001B681B69002B16D1D7F8AC301B889BB2D1
:1057240023F4F8439AB2D7F8AC301A80D7F8AC30E7
:105734001B889BB26FEA43436FEA53439AB2D7F88C
:10574400AC301A8065E03B461B681B693E2B1AD8B7
:105754003B461B681B695B08C7F8E8303B461B687F
:105764001B6903F00103002B04D0D7F8E8300133A0
:10577400C7F8E830D7F8E8309BB29B029AB2D7F862
:10578400AC301A8045E03B461B681B695B09C7F8CF
:10579400E8303B461B681B6903F01F03002B04D150
:1057A400D7F8E830013BC7F8E830D7F8E8309BB2C7
:1057B4009B029BB26FEA43436FEA53439AB2D7F812
:1057C400AC301A8025E03B461B685B78012B20D166
:1057D4003B1D1B68C7F8B8303B1D1B68B3F850303D
:1057E4009BB21A46D7F8B8301344C7F8B8303B46D2
:1057F4001B681B781A01D7F8B830134403F204432A
:10580400C7F8B4303B461B681B699AB2D7F8B4306A
:105814001A803B1D1B68C7F8A8303B461B685B78A1
:10582400002B75D13B1D1B68C7F8A0303B1D1B68BE
:10583400B3F850309BB21A46D7F8A0301344C7F8D7
:10584400A0303B461B681B781A01D7F8A0301344DC
:1058540003F20C43C7F89C303B461B681B69002BC2
:1058640016D1D7F89C301B889BB223F4F8439AB224
:10587400D7F89C301A80D7F89C301B889BB26FEA0B
:1058840043436FEA53439AB2D7F89C301A8061E0DD
:105894003B461B681B693E2B1AD83B461B681B6999
:1058A4005B08C7F8E4303B461B681B6903F001033F
:1058B400002B04D0D7F8E4300133C7F8E430D7F82C
:1058C400E4309BB29B029AB2D7F89C301A8041E034
:1058D4003B461B681B695B09C7F8E4303B461B6801
:1058E4001B6903F01F03002B04D1D7F8E430013BFC
:1058F400C7F8E430D7F8E4309BB29B029BB26FEA5E
:1059040043436FEA53439AB2D7F89C301A8021E09C
:105914003B461B685B78012B1CD13B1D1B68B3F80D
:1059240050309BB21A46D7F8A8301344C7F8A830B1
:105934003B461B681B781A01D7F8A830134403F2BE
:105944000C43C7F8A4303B461B681B699AB2D7F8CE
:10595400A4301A803B461B68DB69002B00F0A4814D
:105964003B1D1A683B461B681B789B0013441B882D
:10597400A7F89A30B7F89A3003F48043002B05D087
:10598400B7F89A3003F04003002B0DD1B7F89A30E2
:1059940003F48043002B40F08781B7F89A3003F07A
:1059A4004003002B40F080813B1D1A683B461B6876
:1059B4001B789B0013441B889BB223F4E04323F021
:1059C4007003A7F898303B1D1A683B461B681B7888
:1059D4009B001A44B7F8983043F07F4343F47F03A5
:1059E40043F4004343F0C0039BB213805CE13B46A5
:1059F4001B68DB78012B40F055813B461B689A6994
:105A04003B461B681B699A420ED93B461B681B69BF
:105A1400C7F80C313B461B689A69D7F80C31D21A87
:105A24003B461B689A6108E03B461B689B69C7F8C4
:105A34000C313B461B6800229A613B461B685B782D
:105A4400002B6FD13B1D1B68C7F8D0303B1D1B6872
:105A5400B3F850309BB21A46D7F8D0301344C7F885
:105A6400D0303B461B681B781A01D7F8D03013445A
:105A740003F20443C7F8CC30D7F80C31002B16D10D
:105A8400D7F8CC301B889BB223F4F8439AB2D7F8EA
:105A9400CC301A80D7F8CC301B889BB26FEA4343D2
:105AA4006FEA53439AB2D7F8CC301A805FE0D7F844
:105AB4000C313E2B18D8D7F80C315B08C7F8E0300E
:105AC400D7F80C3103F00103002B04D0D7F8E030F1
